{
  "_format": "hh-sol-artifact-1",
  "contractName": "Pokemon",
  "sourceName": "contracts/Pokemon.sol",
  "abi": [
    {
      "inputs": [
        {
          "internalType": "address",
          "name": "royaltyReceiver",
          "type": "address"
        },
        {
          "internalType": "uint96",
          "name": "royaltyFeeNumerator",
          "type": "uint96"
        }
      ],
      "stateMutability": "nonpayable",
      "type": "constructor"
    },
    {
      "anonymous": false,
      "inputs": [
        {
          "indexed": true,
          "internalType": "address",
          "name": "owner",
          "type": "address"
        },
        {
          "indexed": true,
          "internalType": "address",
          "name": "approved",
          "type": "address"
        },
        {
          "indexed": true,
          "internalType": "uint256",
          "name": "tokenId",
          "type": "uint256"
        }
      ],
      "name": "Approval",
      "type": "event"
    },
    {
      "anonymous": false,
      "inputs": [
        {
          "indexed": true,
          "internalType": "address",
          "name": "owner",
          "type": "address"
        },
        {
          "indexed": true,
          "internalType": "address",
          "name": "operator",
          "type": "address"
        },
        {
          "indexed": false,
          "internalType": "bool",
          "name": "approved",
          "type": "bool"
        }
      ],
      "name": "ApprovalForAll",
      "type": "event"
    },
    {
      "anonymous": false,
      "inputs": [
        {
          "indexed": false,
          "internalType": "uint256",
          "name": "tokenId",
          "type": "uint256"
        },
        {
          "indexed": false,
          "internalType": "string",
          "name": "name",
          "type": "string"
        },
        {
          "indexed": false,
          "internalType": "string",
          "name": "types",
          "type": "string"
        },
        {
          "indexed": false,
          "internalType": "string",
          "name": "thumbnailUri",
          "type": "string"
        }
      ],
      "name": "Minted",
      "type": "event"
    },
    {
      "anonymous": false,
      "inputs": [
        {
          "indexed": true,
          "internalType": "address",
          "name": "from",
          "type": "address"
        },
        {
          "indexed": true,
          "internalType": "address",
          "name": "to",
          "type": "address"
        },
        {
          "indexed": true,
          "internalType": "uint256",
          "name": "tokenId",
          "type": "uint256"
        }
      ],
      "name": "Transfer",
      "type": "event"
    },
    {
      "inputs": [
        {
          "internalType": "address",
          "name": "to",
          "type": "address"
        },
        {
          "internalType": "uint256",
          "name": "tokenId",
          "type": "uint256"
        }
      ],
      "name": "approve",
      "outputs": [],
      "stateMutability": "nonpayable",
      "type": "function"
    },
    {
      "inputs": [
        {
          "internalType": "address",
          "name": "owner",
          "type": "address"
        }
      ],
      "name": "balanceOf",
      "outputs": [
        {
          "internalType": "uint256",
          "name": "",
          "type": "uint256"
        }
      ],
      "stateMutability": "view",
      "type": "function"
    },
    {
      "inputs": [
        {
          "internalType": "uint256",
          "name": "tokenId",
          "type": "uint256"
        }
      ],
      "name": "getApproved",
      "outputs": [
        {
          "internalType": "address",
          "name": "",
          "type": "address"
        }
      ],
      "stateMutability": "view",
      "type": "function"
    },
    {
      "inputs": [
        {
          "internalType": "address",
          "name": "owner",
          "type": "address"
        },
        {
          "internalType": "address",
          "name": "operator",
          "type": "address"
        }
      ],
      "name": "isApprovedForAll",
      "outputs": [
        {
          "internalType": "bool",
          "name": "",
          "type": "bool"
        }
      ],
      "stateMutability": "view",
      "type": "function"
    },
    {
      "inputs": [],
      "name": "name",
      "outputs": [
        {
          "internalType": "string",
          "name": "",
          "type": "string"
        }
      ],
      "stateMutability": "view",
      "type": "function"
    },
    {
      "inputs": [
        {
          "internalType": "uint256",
          "name": "tokenId",
          "type": "uint256"
        }
      ],
      "name": "ownerOf",
      "outputs": [
        {
          "internalType": "address",
          "name": "",
          "type": "address"
        }
      ],
      "stateMutability": "view",
      "type": "function"
    },
    {
      "inputs": [
        {
          "internalType": "uint256",
          "name": "_tokenId",
          "type": "uint256"
        },
        {
          "internalType": "uint256",
          "name": "_salePrice",
          "type": "uint256"
        }
      ],
      "name": "royaltyInfo",
      "outputs": [
        {
          "internalType": "address",
          "name": "",
          "type": "address"
        },
        {
          "internalType": "uint256",
          "name": "",
          "type": "uint256"
        }
      ],
      "stateMutability": "view",
      "type": "function"
    },
    {
      "inputs": [
        {
          "internalType": "address",
          "name": "to",
          "type": "address"
        },
        {
          "internalType": "string",
          "name": "uri",
          "type": "string"
        },
        {
          "internalType": "uint256",
          "name": "tokenId",
          "type": "uint256"
        },
        {
          "internalType": "string",
          "name": "name",
          "type": "string"
        },
        {
          "internalType": "string",
          "name": "types",
          "type": "string"
        },
        {
          "internalType": "string",
          "name": "thumbnailUri",
          "type": "string"
        }
      ],
      "name": "safeMint",
      "outputs": [],
      "stateMutability": "nonpayable",
      "type": "function"
    },
    {
      "inputs": [
        {
          "internalType": "address",
          "name": "from",
          "type": "address"
        },
        {
          "internalType": "address",
          "name": "to",
          "type": "address"
        },
        {
          "internalType": "uint256",
          "name": "tokenId",
          "type": "uint256"
        }
      ],
      "name": "safeTransferFrom",
      "outputs": [],
      "stateMutability": "nonpayable",
      "type": "function"
    },
    {
      "inputs": [
        {
          "internalType": "address",
          "name": "from",
          "type": "address"
        },
        {
          "internalType": "address",
          "name": "to",
          "type": "address"
        },
        {
          "internalType": "uint256",
          "name": "tokenId",
          "type": "uint256"
        },
        {
          "internalType": "bytes",
          "name": "data",
          "type": "bytes"
        }
      ],
      "name": "safeTransferFrom",
      "outputs": [],
      "stateMutability": "nonpayable",
      "type": "function"
    },
    {
      "inputs": [
        {
          "internalType": "address",
          "name": "operator",
          "type": "address"
        },
        {
          "internalType": "bool",
          "name": "approved",
          "type": "bool"
        }
      ],
      "name": "setApprovalForAll",
      "outputs": [],
      "stateMutability": "nonpayable",
      "type": "function"
    },
    {
      "inputs": [
        {
          "internalType": "bytes4",
          "name": "interfaceId",
          "type": "bytes4"
        }
      ],
      "name": "supportsInterface",
      "outputs": [
        {
          "internalType": "bool",
          "name": "",
          "type": "bool"
        }
      ],
      "stateMutability": "view",
      "type": "function"
    },
    {
      "inputs": [],
      "name": "symbol",
      "outputs": [
        {
          "internalType": "string",
          "name": "",
          "type": "string"
        }
      ],
      "stateMutability": "view",
      "type": "function"
    },
    {
      "inputs": [
        {
          "internalType": "uint256",
          "name": "tokenId",
          "type": "uint256"
        }
      ],
      "name": "tokenURI",
      "outputs": [
        {
          "internalType": "string",
          "name": "",
          "type": "string"
        }
      ],
      "stateMutability": "view",
      "type": "function"
    },
    {
      "inputs": [
        {
          "internalType": "address",
          "name": "from",
          "type": "address"
        },
        {
          "internalType": "address",
          "name": "to",
          "type": "address"
        },
        {
          "internalType": "uint256",
          "name": "tokenId",
          "type": "uint256"
        }
      ],
      "name": "transferFrom",
      "outputs": [],
      "stateMutability": "nonpayable",
      "type": "function"
    }
  ],
  "bytecode": "0x60806040523480156200001157600080fd5b506040516200374438038062003744833981810160405281019062000037919062000342565b6040518060400160405280600781526020017f506f6b656d6f6e000000000000000000000000000000000000000000000000008152506040518060400160405280600381526020017f504b4d00000000000000000000000000000000000000000000000000000000008152508160029081620000b4919062000603565b508060039081620000c6919062000603565b505050620000db8282620000e360201b60201c565b505062000805565b620000f36200028560201b60201c565b6bffffffffffffffffffffffff16816bffffffffffffffffffffffff16111562000154576040517f08c379a00000000000000000000000000000000000000000000000000000000081526004016200014b9062000771565b60405180910390fd5b600073ffffffffffffffffffffffffffffffffffffffff168273ffffffffffffffffffffffffffffffffffffffff1603620001c6576040517f08c379a0000000000000000000000000000000000000000000000000000000008152600401620001bd90620007e3565b60405180910390fd5b60405180604001604052808373ffffffffffffffffffffffffffffffffffffffff168152602001826bffffffffffffffffffffffff168152506000808201518160000160006101000a81548173ffffffffffffffffffffffffffffffffffffffff021916908373ffffffffffffffffffffffffffffffffffffffff16021790555060208201518160000160146101000a8154816bffffffffffffffffffffffff02191690836bffffffffffffffffffffffff1602179055509050505050565b6000612710905090565b600080fd5b600073ffffffffffffffffffffffffffffffffffffffff82169050919050565b6000620002c18262000294565b9050919050565b620002d381620002b4565b8114620002df57600080fd5b50565b600081519050620002f381620002c8565b92915050565b60006bffffffffffffffffffffffff82169050919050565b6200031c81620002f9565b81146200032857600080fd5b50565b6000815190506200033c8162000311565b92915050565b600080604083850312156200035c576200035b6200028f565b5b60006200036c85828601620002e2565b92505060206200037f858286016200032b565b9150509250929050565b600081519050919050565b7f4e487b7100000000000000000000000000000000000000000000000000000000600052604160045260246000fd5b7f4e487b7100000000000000000000000000000000000000000000000000000000600052602260045260246000fd5b600060028204905060018216806200040b57607f821691505b602082108103620004215762000420620003c3565b5b50919050565b60008190508160005260206000209050919050565b60006020601f8301049050919050565b600082821b905092915050565b6000600883026200048b7fffffffffffffffffffffffffffffffffffffffffffffffffffffffffffffffff826200044c565b6200049786836200044c565b95508019841693508086168417925050509392505050565b6000819050919050565b6000819050919050565b6000620004e4620004de620004d884620004af565b620004b9565b620004af565b9050919050565b6000819050919050565b6200050083620004c3565b620005186200050f82620004eb565b84845462000459565b825550505050565b600090565b6200052f62000520565b6200053c818484620004f5565b505050565b5b8181101562000564576200055860008262000525565b60018101905062000542565b5050565b601f821115620005b3576200057d8162000427565b62000588846200043c565b8101602085101562000598578190505b620005b0620005a7856200043c565b83018262000541565b50505b505050565b600082821c905092915050565b6000620005d860001984600802620005b8565b1980831691505092915050565b6000620005f38383620005c5565b9150826002028217905092915050565b6200060e8262000389565b67ffffffffffffffff8111156200062a576200062962000394565b5b620006368254620003f2565b6200064382828562000568565b600060209050601f8311600181146200067b576000841562000666578287015190505b620006728582620005e5565b865550620006e2565b601f1984166200068b8662000427565b60005b82811015620006b5578489015182556001820191506020850194506020810190506200068e565b86831015620006d55784890151620006d1601f891682620005c5565b8355505b6001600288020188555050505b505050505050565b600082825260208201905092915050565b7f455243323938313a20726f79616c7479206665652077696c6c2065786365656460008201527f2073616c65507269636500000000000000000000000000000000000000000000602082015250565b600062000759602a83620006ea565b91506200076682620006fb565b604082019050919050565b600060208201905081810360008301526200078c816200074a565b9050919050565b7f455243323938313a20696e76616c696420726563656976657200000000000000600082015250565b6000620007cb601983620006ea565b9150620007d88262000793565b602082019050919050565b60006020820190508181036000830152620007fe81620007bc565b9050919050565b612f2f80620008156000396000f3fe608060405234801561001057600080fd5b50600436106100f55760003560e01c806342842e0e11610097578063a22cb46511610066578063a22cb46514610297578063b88d4fde146102b3578063c87b56dd146102cf578063e985e9c5146102ff576100f5565b806342842e0e146101fd5780636352211e1461021957806370a082311461024957806395d89b4114610279576100f5565b8063081812fc116100d3578063081812fc14610164578063095ea7b31461019457806323b872dd146101b05780632a55205a146101cc576100f5565b8063014f9ab5146100fa57806301ffc9a71461011657806306fdde0314610146575b600080fd5b610114600480360381019061010f9190611c8a565b61032f565b005b610130600480360381019061012b9190611ddf565b610388565b60405161013d9190611e27565b60405180910390f35b61014e6103aa565b60405161015b9190611ec1565b60405180910390f35b61017e60048036038101906101799190611ee3565b61043c565b60405161018b9190611f1f565b60405180910390f35b6101ae60048036038101906101a99190611f3a565b610482565b005b6101ca60048036038101906101c59190611f7a565b610599565b005b6101e660048036038101906101e19190611fcd565b6105f9565b6040516101f492919061201c565b60405180910390f35b61021760048036038101906102129190611f7a565b6107e3565b005b610233600480360381019061022e9190611ee3565b610803565b6040516102409190611f1f565b60405180910390f35b610263600480360381019061025e9190612045565b6108b4565b6040516102709190612072565b60405180910390f35b61028161096b565b60405161028e9190611ec1565b60405180910390f35b6102b160048036038101906102ac91906120b9565b6109fd565b005b6102cd60048036038101906102c8919061219a565b610a13565b005b6102e960048036038101906102e49190611ee3565b610a75565b6040516102f69190611ec1565b60405180910390f35b6103196004803603810190610314919061221d565b610a87565b6040516103269190611e27565b60405180910390f35b6103398685610b1b565b6103438486610b39565b7f95d309877521b5d821abd56901d5b9e7d97fdd7f51d831c8c532ea5ba90de3cd84848484604051610378949392919061225d565b60405180910390a1505050505050565b600061039382610ba6565b806103a357506103a282610c88565b5b9050919050565b6060600280546103b9906122e6565b80601f01602080910402602001604051908101604052809291908181526020018280546103e5906122e6565b80156104325780601f1061040757610100808354040283529160200191610432565b820191906000526020600020905b81548152906001019060200180831161041557829003601f168201915b5050505050905090565b600061044782610c9a565b6006600083815260200190815260200160002060009054906101000a900473ffffffffffffffffffffffffffffffffffffffff169050919050565b600061048d82610803565b90508073ffffffffffffffffffffffffffffffffffffffff168373ffffffffffffffffffffffffffffffffffffffff16036104fd576040517f08c379a00000000000000000000000000000000000000000000000000000000081526004016104f490612389565b60405180910390fd5b8073ffffffffffffffffffffffffffffffffffffffff1661051c610ce5565b73ffffffffffffffffffffffffffffffffffffffff16148061054b575061054a81610545610ce5565b610a87565b5b61058a576040517f08c379a00000000000000000000000000000000000000000000000000000000081526004016105819061241b565b60405180910390fd5b6105948383610ced565b505050565b6105aa6105a4610ce5565b82610da6565b6105e9576040517f08c379a00000000000000000000000000000000000000000000000000000000081526004016105e0906124ad565b60405180910390fd5b6105f4838383610e3b565b505050565b6000806000600160008681526020019081526020016000206040518060400160405290816000820160009054906101000a900473ffffffffffffffffffffffffffffffffffffffff1673ffffffffffffffffffffffffffffffffffffffff1673ffffffffffffffffffffffffffffffffffffffff1681526020016000820160149054906101000a90046bffffffffffffffffffffffff166bffffffffffffffffffffffff166bffffffffffffffffffffffff16815250509050600073ffffffffffffffffffffffffffffffffffffffff16816000015173ffffffffffffffffffffffffffffffffffffffff160361078e5760006040518060400160405290816000820160009054906101000a900473ffffffffffffffffffffffffffffffffffffffff1673ffffffffffffffffffffffffffffffffffffffff1673ffffffffffffffffffffffffffffffffffffffff1681526020016000820160149054906101000a90046bffffffffffffffffffffffff166bffffffffffffffffffffffff166bffffffffffffffffffffffff168152505090505b60006107986110a1565b6bffffffffffffffffffffffff1682602001516bffffffffffffffffffffffff16866107c491906124fc565b6107ce919061256d565b90508160000151819350935050509250929050565b6107fe83838360405180602001604052806000815250610a13565b505050565b6000806004600084815260200190815260200160002060009054906101000a900473ffffffffffffffffffffffffffffffffffffffff169050600073ffffffffffffffffffffffffffffffffffffffff168173ffffffffffffffffffffffffffffffffffffffff16036108ab576040517f08c379a00000000000000000000000000000000000000000000000000000000081526004016108a2906125ea565b60405180910390fd5b80915050919050565b60008073ffffffffffffffffffffffffffffffffffffffff168273ffffffffffffffffffffffffffffffffffffffff1603610924576040517f08c379a000000000000000000000000000000000000000000000000000000000815260040161091b9061267c565b60405180910390fd5b600560008373ffffffffffffffffffffffffffffffffffffffff1673ffffffffffffffffffffffffffffffffffffffff168152602001908152602001600020549050919050565b60606003805461097a906122e6565b80601f01602080910402602001604051908101604052809291908181526020018280546109a6906122e6565b80156109f35780601f106109c8576101008083540402835291602001916109f3565b820191906000526020600020905b8154815290600101906020018083116109d657829003601f168201915b5050505050905090565b610a0f610a08610ce5565b83836110ab565b5050565b610a24610a1e610ce5565b83610da6565b610a63576040517f08c379a0000000000000000000000000000000000000000000000000000000008152600401610a5a906124ad565b60405180910390fd5b610a6f84848484611217565b50505050565b6060610a8082611273565b9050919050565b6000600760008473ffffffffffffffffffffffffffffffffffffffff1673ffffffffffffffffffffffffffffffffffffffff16815260200190815260200160002060008373ffffffffffffffffffffffffffffffffffffffff1673ffffffffffffffffffffffffffffffffffffffff16815260200190815260200160002060009054906101000a900460ff16905092915050565b610b35828260405180602001604052806000815250611385565b5050565b610b42826113e0565b610b81576040517f08c379a0000000000000000000000000000000000000000000000000000000008152600401610b789061270e565b60405180910390fd5b80600860008481526020019081526020016000209081610ba191906128da565b505050565b60007f80ac58cd000000000000000000000000000000000000000000000000000000007bffffffffffffffffffffffffffffffffffffffffffffffffffffffff1916827bffffffffffffffffffffffffffffffffffffffffffffffffffffffff19161480610c7157507f5b5e139f000000000000000000000000000000000000000000000000000000007bffffffffffffffffffffffffffffffffffffffffffffffffffffffff1916827bffffffffffffffffffffffffffffffffffffffffffffffffffffffff1916145b80610c815750610c808261144c565b5b9050919050565b6000610c9382610ba6565b9050919050565b610ca3816113e0565b610ce2576040517f08c379a0000000000000000000000000000000000000000000000000000000008152600401610cd9906125ea565b60405180910390fd5b50565b600033905090565b816006600083815260200190815260200160002060006101000a81548173ffffffffffffffffffffffffffffffffffffffff021916908373ffffffffffffffffffffffffffffffffffffffff160217905550808273ffffffffffffffffffffffffffffffffffffffff16610d6083610803565b73ffffffffffffffffffffffffffffffffffffffff167f8c5be1e5ebec7d5bd14f71427d1e84f3dd0314c0f7b2291e5b200ac8c7c3b92560405160405180910390a45050565b600080610db283610803565b90508073ffffffffffffffffffffffffffffffffffffffff168473ffffffffffffffffffffffffffffffffffffffff161480610df45750610df38185610a87565b5b80610e3257508373ffffffffffffffffffffffffffffffffffffffff16610e1a8461043c565b73ffffffffffffffffffffffffffffffffffffffff16145b91505092915050565b8273ffffffffffffffffffffffffffffffffffffffff16610e5b82610803565b73ffffffffffffffffffffffffffffffffffffffff1614610eb1576040517f08c379a0000000000000000000000000000000000000000000000000000000008152600401610ea890612a1e565b60405180910390fd5b600073ffffffffffffffffffffffffffffffffffffffff168273ffffffffffffffffffffffffffffffffffffffff1603610f20576040517f08c379a0000000000000000000000000000000000000000000000000000000008152600401610f1790612ab0565b60405180910390fd5b610f2b8383836114c6565b610f36600082610ced565b6001600560008573ffffffffffffffffffffffffffffffffffffffff1673ffffffffffffffffffffffffffffffffffffffff1681526020019081526020016000206000828254610f869190612ad0565b925050819055506001600560008473ffffffffffffffffffffffffffffffffffffffff1673ffffffffffffffffffffffffffffffffffffffff1681526020019081526020016000206000828254610fdd9190612b04565b92505081905550816004600083815260200190815260200160002060006101000a81548173ffffffffffffffffffffffffffffffffffffffff021916908373ffffffffffffffffffffffffffffffffffffffff160217905550808273ffffffffffffffffffffffffffffffffffffffff168473ffffffffffffffffffffffffffffffffffffffff167fddf252ad1be2c89b69c2b068fc378daa952ba7f163c4a11628f55a4df523b3ef60405160405180910390a461109c8383836114cb565b505050565b6000612710905090565b8173ffffffffffffffffffffffffffffffffffffffff168373ffffffffffffffffffffffffffffffffffffffff1603611119576040517f08c379a000000000000000000000000000000000000000000000000000000000815260040161111090612b84565b60405180910390fd5b80600760008573ffffffffffffffffffffffffffffffffffffffff1673ffffffffffffffffffffffffffffffffffffffff16815260200190815260200160002060008473ffffffffffffffffffffffffffffffffffffffff1673ffffffffffffffffffffffffffffffffffffffff16815260200190815260200160002060006101000a81548160ff0219169083151502179055508173ffffffffffffffffffffffffffffffffffffffff168373ffffffffffffffffffffffffffffffffffffffff167f17307eab39ab6107e8899845ad3d59bd9653f200f220920489ca2b5937696c318360405161120a9190611e27565b60405180910390a3505050565b611222848484610e3b565b61122e848484846114d0565b61126d576040517f08c379a000000000000000000000000000000000000000000000000000000000815260040161126490612c16565b60405180910390fd5b50505050565b606061127e82610c9a565b600060086000848152602001908152602001600020805461129e906122e6565b80601f01602080910402602001604051908101604052809291908181526020018280546112ca906122e6565b80156113175780601f106112ec57610100808354040283529160200191611317565b820191906000526020600020905b8154815290600101906020018083116112fa57829003601f168201915b505050505090506000611328611657565b9050600081510361133d578192505050611380565b60008251111561137257808260405160200161135a929190612c72565b60405160208183030381529060405292505050611380565b61137b8461166e565b925050505b919050565b61138f83836116d6565b61139c60008484846114d0565b6113db576040517f08c379a00000000000000000000000000000000000000000000000000000000081526004016113d290612c16565b60405180910390fd5b505050565b60008073ffffffffffffffffffffffffffffffffffffffff166004600084815260200190815260200160002060009054906101000a900473ffffffffffffffffffffffffffffffffffffffff1673ffffffffffffffffffffffffffffffffffffffff1614159050919050565b60007f2a55205a000000000000000000000000000000000000000000000000000000007bffffffffffffffffffffffffffffffffffffffffffffffffffffffff1916827bffffffffffffffffffffffffffffffffffffffffffffffffffffffff191614806114bf57506114be826118af565b5b9050919050565b505050565b505050565b60006114f18473ffffffffffffffffffffffffffffffffffffffff16611919565b1561164a578373ffffffffffffffffffffffffffffffffffffffff1663150b7a0261151a610ce5565b8786866040518563ffffffff1660e01b815260040161153c9493929190612ceb565b6020604051808303816000875af192505050801561157857506040513d601f19601f820116820180604052508101906115759190612d4c565b60015b6115fa573d80600081146115a8576040519150601f19603f3d011682016040523d82523d6000602084013e6115ad565b606091505b5060008151036115f2576040517f08c379a00000000000000000000000000000000000000000000000000000000081526004016115e990612c16565b60405180910390fd5b805181602001fd5b63150b7a0260e01b7bffffffffffffffffffffffffffffffffffffffffffffffffffffffff1916817bffffffffffffffffffffffffffffffffffffffffffffffffffffffff19161491505061164f565b600190505b949350505050565b606060405180602001604052806000815250905090565b606061167982610c9a565b6000611683611657565b905060008151116116a357604051806020016040528060008152506116ce565b806116ad8461193c565b6040516020016116be929190612c72565b6040516020818303038152906040525b915050919050565b600073ffffffffffffffffffffffffffffffffffffffff168273ffffffffffffffffffffffffffffffffffffffff1603611745576040517f08c379a000000000000000000000000000000000000000000000000000000000815260040161173c90612dc5565b60405180910390fd5b61174e816113e0565b1561178e576040517f08c379a000000000000000000000000000000000000000000000000000000000815260040161178590612e31565b60405180910390fd5b61179a600083836114c6565b6001600560008473ffffffffffffffffffffffffffffffffffffffff1673ffffffffffffffffffffffffffffffffffffffff16815260200190815260200160002060008282546117ea9190612b04565b92505081905550816004600083815260200190815260200160002060006101000a81548173ffffffffffffffffffffffffffffffffffffffff021916908373ffffffffffffffffffffffffffffffffffffffff160217905550808273ffffffffffffffffffffffffffffffffffffffff16600073ffffffffffffffffffffffffffffffffffffffff167fddf252ad1be2c89b69c2b068fc378daa952ba7f163c4a11628f55a4df523b3ef60405160405180910390a46118ab600083836114cb565b5050565b60007f01ffc9a7000000000000000000000000000000000000000000000000000000007bffffffffffffffffffffffffffffffffffffffffffffffffffffffff1916827bffffffffffffffffffffffffffffffffffffffffffffffffffffffff1916149050919050565b6000808273ffffffffffffffffffffffffffffffffffffffff163b119050919050565b606060008203611983576040518060400160405280600181526020017f30000000000000000000000000000000000000000000000000000000000000008152509050611a97565b600082905060005b600082146119b557808061199e90612e51565b915050600a826119ae919061256d565b915061198b565b60008167ffffffffffffffff8111156119d1576119d0611b29565b5b6040519080825280601f01601f191660200182016040528015611a035781602001600182028036833780820191505090505b5090505b60008514611a9057600182611a1c9190612ad0565b9150600a85611a2b9190612e99565b6030611a379190612b04565b60f81b818381518110611a4d57611a4c612eca565b5b60200101907effffffffffffffffffffffffffffffffffffffffffffffffffffffffffffff1916908160001a905350600a85611a89919061256d565b9450611a07565b8093505050505b919050565b6000604051905090565b600080fd5b600080fd5b600073ffffffffffffffffffffffffffffffffffffffff82169050919050565b6000611adb82611ab0565b9050919050565b611aeb81611ad0565b8114611af657600080fd5b50565b600081359050611b0881611ae2565b92915050565b600080fd5b600080fd5b6000601f19601f8301169050919050565b7f4e487b7100000000000000000000000000000000000000000000000000000000600052604160045260246000fd5b611b6182611b18565b810181811067ffffffffffffffff82111715611b8057611b7f611b29565b5b80604052505050565b6000611b93611a9c565b9050611b9f8282611b58565b919050565b600067ffffffffffffffff821115611bbf57611bbe611b29565b5b611bc882611b18565b9050602081019050919050565b82818337600083830152505050565b6000611bf7611bf284611ba4565b611b89565b905082815260208101848484011115611c1357611c12611b13565b5b611c1e848285611bd5565b509392505050565b600082601f830112611c3b57611c3a611b0e565b5b8135611c4b848260208601611be4565b91505092915050565b6000819050919050565b611c6781611c54565b8114611c7257600080fd5b50565b600081359050611c8481611c5e565b92915050565b60008060008060008060c08789031215611ca757611ca6611aa6565b5b6000611cb589828a01611af9565b965050602087013567ffffffffffffffff811115611cd657611cd5611aab565b5b611ce289828a01611c26565b9550506040611cf389828a01611c75565b945050606087013567ffffffffffffffff811115611d1457611d13611aab565b5b611d2089828a01611c26565b935050608087013567ffffffffffffffff811115611d4157611d40611aab565b5b611d4d89828a01611c26565b92505060a087013567ffffffffffffffff811115611d6e57611d6d611aab565b5b611d7a89828a01611c26565b9150509295509295509295565b60007fffffffff0000000000000000000000000000000000000000000000000000000082169050919050565b611dbc81611d87565b8114611dc757600080fd5b50565b600081359050611dd981611db3565b92915050565b600060208284031215611df557611df4611aa6565b5b6000611e0384828501611dca565b91505092915050565b60008115159050919050565b611e2181611e0c565b82525050565b6000602082019050611e3c6000830184611e18565b92915050565b600081519050919050565b600082825260208201905092915050565b60005b83811015611e7c578082015181840152602081019050611e61565b60008484015250505050565b6000611e9382611e42565b611e9d8185611e4d565b9350611ead818560208601611e5e565b611eb681611b18565b840191505092915050565b60006020820190508181036000830152611edb8184611e88565b905092915050565b600060208284031215611ef957611ef8611aa6565b5b6000611f0784828501611c75565b91505092915050565b611f1981611ad0565b82525050565b6000602082019050611f346000830184611f10565b92915050565b60008060408385031215611f5157611f50611aa6565b5b6000611f5f85828601611af9565b9250506020611f7085828601611c75565b9150509250929050565b600080600060608486031215611f9357611f92611aa6565b5b6000611fa186828701611af9565b9350506020611fb286828701611af9565b9250506040611fc386828701611c75565b9150509250925092565b60008060408385031215611fe457611fe3611aa6565b5b6000611ff285828601611c75565b925050602061200385828601611c75565b9150509250929050565b61201681611c54565b82525050565b60006040820190506120316000830185611f10565b61203e602083018461200d565b9392505050565b60006020828403121561205b5761205a611aa6565b5b600061206984828501611af9565b91505092915050565b6000602082019050612087600083018461200d565b92915050565b61209681611e0c565b81146120a157600080fd5b50565b6000813590506120b38161208d565b92915050565b600080604083850312156120d0576120cf611aa6565b5b60006120de85828601611af9565b92505060206120ef858286016120a4565b9150509250929050565b600067ffffffffffffffff82111561211457612113611b29565b5b61211d82611b18565b9050602081019050919050565b600061213d612138846120f9565b611b89565b90508281526020810184848401111561215957612158611b13565b5b612164848285611bd5565b509392505050565b600082601f83011261218157612180611b0e565b5b813561219184826020860161212a565b91505092915050565b600080600080608085870312156121b4576121b3611aa6565b5b60006121c287828801611af9565b94505060206121d387828801611af9565b93505060406121e487828801611c75565b925050606085013567ffffffffffffffff81111561220557612204611aab565b5b6122118782880161216c565b91505092959194509250565b6000806040838503121561223457612233611aa6565b5b600061224285828601611af9565b925050602061225385828601611af9565b9150509250929050565b6000608082019050612272600083018761200d565b81810360208301526122848186611e88565b905081810360408301526122988185611e88565b905081810360608301526122ac8184611e88565b905095945050505050565b7f4e487b7100000000000000000000000000000000000000000000000000000000600052602260045260246000fd5b600060028204905060018216806122fe57607f821691505b602082108103612311576123106122b7565b5b50919050565b7f4552433732313a20617070726f76616c20746f2063757272656e74206f776e6560008201527f7200000000000000000000000000000000000000000000000000000000000000602082015250565b6000612373602183611e4d565b915061237e82612317565b604082019050919050565b600060208201905081810360008301526123a281612366565b9050919050565b7f4552433732313a20617070726f76652063616c6c6572206973206e6f7420746f60008201527f6b656e206f776e6572206e6f7220617070726f76656420666f7220616c6c0000602082015250565b6000612405603e83611e4d565b9150612410826123a9565b604082019050919050565b60006020820190508181036000830152612434816123f8565b9050919050565b7f4552433732313a2063616c6c6572206973206e6f7420746f6b656e206f776e6560008201527f72206e6f7220617070726f766564000000000000000000000000000000000000602082015250565b6000612497602e83611e4d565b91506124a28261243b565b604082019050919050565b600060208201905081810360008301526124c68161248a565b9050919050565b7f4e487b7100000000000000000000000000000000000000000000000000000000600052601160045260246000fd5b600061250782611c54565b915061251283611c54565b925082820261252081611c54565b91508282048414831517612537576125366124cd565b5b5092915050565b7f4e487b7100000000000000000000000000000000000000000000000000000000600052601260045260246000fd5b600061257882611c54565b915061258383611c54565b9250826125935761259261253e565b5b828204905092915050565b7f4552433732313a20696e76616c696420746f6b656e2049440000000000000000600082015250565b60006125d4601883611e4d565b91506125df8261259e565b602082019050919050565b60006020820190508181036000830152612603816125c7565b9050919050565b7f4552433732313a2061646472657373207a65726f206973206e6f74206120766160008201527f6c6964206f776e65720000000000000000000000000000000000000000000000602082015250565b6000612666602983611e4d565b91506126718261260a565b604082019050919050565b6000602082019050818103600083015261269581612659565b9050919050565b7f45524337323155524953746f726167653a2055524920736574206f66206e6f6e60008201527f6578697374656e7420746f6b656e000000000000000000000000000000000000602082015250565b60006126f8602e83611e4d565b91506127038261269c565b604082019050919050565b60006020820190508181036000830152612727816126eb565b9050919050565b60008190508160005260206000209050919050565b60006020601f8301049050919050565b600082821b905092915050565b6000600883026127907fffffffffffffffffffffffffffffffffffffffffffffffffffffffffffffffff82612753565b61279a8683612753565b95508019841693508086168417925050509392505050565b6000819050919050565b60006127d76127d26127cd84611c54565b6127b2565b611c54565b9050919050565b6000819050919050565b6127f1836127bc565b6128056127fd826127de565b848454612760565b825550505050565b600090565b61281a61280d565b6128258184846127e8565b505050565b5b818110156128495761283e600082612812565b60018101905061282b565b5050565b601f82111561288e5761285f8161272e565b61286884612743565b81016020851015612877578190505b61288b61288385612743565b83018261282a565b50505b505050565b600082821c905092915050565b60006128b160001984600802612893565b1980831691505092915050565b60006128ca83836128a0565b9150826002028217905092915050565b6128e382611e42565b67ffffffffffffffff8111156128fc576128fb611b29565b5b61290682546122e6565b61291182828561284d565b600060209050601f8311600181146129445760008415612932578287015190505b61293c85826128be565b8655506129a4565b601f1984166129528661272e565b60005b8281101561297a57848901518255600182019150602085019450602081019050612955565b868310156129975784890151612993601f8916826128a0565b8355505b6001600288020188555050505b505050505050565b7f4552433732313a207472616e736665722066726f6d20696e636f72726563742060008201527f6f776e6572000000000000000000000000000000000000000000000000000000602082015250565b6000612a08602583611e4d565b9150612a13826129ac565b604082019050919050565b60006020820190508181036000830152612a37816129fb565b9050919050565b7f4552433732313a207472616e7366657220746f20746865207a65726f2061646460008201527f7265737300000000000000000000000000000000000000000000000000000000602082015250565b6000612a9a602483611e4d565b9150612aa582612a3e565b604082019050919050565b60006020820190508181036000830152612ac981612a8d565b9050919050565b6000612adb82611c54565b9150612ae683611c54565b9250828203905081811115612afe57612afd6124cd565b5b92915050565b6000612b0f82611c54565b9150612b1a83611c54565b9250828201905080821115612b3257612b316124cd565b5b92915050565b7f4552433732313a20617070726f766520746f2063616c6c657200000000000000600082015250565b6000612b6e601983611e4d565b9150612b7982612b38565b602082019050919050565b60006020820190508181036000830152612b9d81612b61565b9050919050565b7f4552433732313a207472616e7366657220746f206e6f6e20455243373231526560008201527f63656976657220696d706c656d656e7465720000000000000000000000000000602082015250565b6000612c00603283611e4d565b9150612c0b82612ba4565b604082019050919050565b60006020820190508181036000830152612c2f81612bf3565b9050919050565b600081905092915050565b6000612c4c82611e42565b612c568185612c36565b9350612c66818560208601611e5e565b80840191505092915050565b6000612c7e8285612c41565b9150612c8a8284612c41565b91508190509392505050565b600081519050919050565b600082825260208201905092915050565b6000612cbd82612c96565b612cc78185612ca1565b9350612cd7818560208601611e5e565b612ce081611b18565b840191505092915050565b6000608082019050612d006000830187611f10565b612d0d6020830186611f10565b612d1a604083018561200d565b8181036060830152612d2c8184612cb2565b905095945050505050565b600081519050612d4681611db3565b92915050565b600060208284031215612d6257612d61611aa6565b5b6000612d7084828501612d37565b91505092915050565b7f4552433732313a206d696e7420746f20746865207a65726f2061646472657373600082015250565b6000612daf602083611e4d565b9150612dba82612d79565b602082019050919050565b60006020820190508181036000830152612dde81612da2565b9050919050565b7f4552433732313a20746f6b656e20616c7265616479206d696e74656400000000600082015250565b6000612e1b601c83611e4d565b9150612e2682612de5565b602082019050919050565b60006020820190508181036000830152612e4a81612e0e565b9050919050565b6000612e5c82611c54565b91507fffffffffffffffffffffffffffffffffffffffffffffffffffffffffffffffff8203612e8e57612e8d6124cd565b5b600182019050919050565b6000612ea482611c54565b9150612eaf83611c54565b925082612ebf57612ebe61253e565b5b828206905092915050565b7f4e487b7100000000000000000000000000000000000000000000000000000000600052603260045260246000fdfea26469706673582212207a4395dfef0f81c46514be661db49875d1e8f83beb1d56a170c1fa80838e7f3c64736f6c63430008110033",
  "linkReferences": {},
  "deployedLinkReferences": {}
}