{
  "_format": "hh-sol-artifact-1",
  "contractName": "Pokemon",
  "sourceName": "contracts/Pokemon.sol",
  "abi": [
    {
      "inputs": [],
      "stateMutability": "nonpayable",
      "type": "constructor"
    },
    {
      "anonymous": false,
      "inputs": [
        {
          "indexed": true,
          "internalType": "address",
          "name": "owner",
          "type": "address"
        },
        {
          "indexed": true,
          "internalType": "address",
          "name": "approved",
          "type": "address"
        },
        {
          "indexed": true,
          "internalType": "uint256",
          "name": "tokenId",
          "type": "uint256"
        }
      ],
      "name": "Approval",
      "type": "event"
    },
    {
      "anonymous": false,
      "inputs": [
        {
          "indexed": true,
          "internalType": "address",
          "name": "owner",
          "type": "address"
        },
        {
          "indexed": true,
          "internalType": "address",
          "name": "operator",
          "type": "address"
        },
        {
          "indexed": false,
          "internalType": "bool",
          "name": "approved",
          "type": "bool"
        }
      ],
      "name": "ApprovalForAll",
      "type": "event"
    },
    {
      "anonymous": false,
      "inputs": [
        {
          "indexed": false,
          "internalType": "uint256",
          "name": "tokenId",
          "type": "uint256"
        },
        {
          "indexed": false,
          "internalType": "string",
          "name": "name",
          "type": "string"
        },
        {
          "indexed": false,
          "internalType": "string",
          "name": "types",
          "type": "string"
        },
        {
          "indexed": false,
          "internalType": "string",
          "name": "thumbnailUri",
          "type": "string"
        }
      ],
      "name": "Minted",
      "type": "event"
    },
    {
      "anonymous": false,
      "inputs": [
        {
          "indexed": true,
          "internalType": "address",
          "name": "previousOwner",
          "type": "address"
        },
        {
          "indexed": true,
          "internalType": "address",
          "name": "newOwner",
          "type": "address"
        }
      ],
      "name": "OwnershipTransferred",
      "type": "event"
    },
    {
      "anonymous": false,
      "inputs": [
        {
          "indexed": true,
          "internalType": "address",
          "name": "from",
          "type": "address"
        },
        {
          "indexed": true,
          "internalType": "address",
          "name": "to",
          "type": "address"
        },
        {
          "indexed": true,
          "internalType": "uint256",
          "name": "tokenId",
          "type": "uint256"
        }
      ],
      "name": "Transfer",
      "type": "event"
    },
    {
      "inputs": [
        {
          "internalType": "address",
          "name": "to",
          "type": "address"
        },
        {
          "internalType": "uint256",
          "name": "tokenId",
          "type": "uint256"
        }
      ],
      "name": "approve",
      "outputs": [],
      "stateMutability": "nonpayable",
      "type": "function"
    },
    {
      "inputs": [
        {
          "internalType": "address",
          "name": "owner",
          "type": "address"
        }
      ],
      "name": "balanceOf",
      "outputs": [
        {
          "internalType": "uint256",
          "name": "",
          "type": "uint256"
        }
      ],
      "stateMutability": "view",
      "type": "function"
    },
    {
      "inputs": [
        {
          "internalType": "uint256",
          "name": "tokenId",
          "type": "uint256"
        }
      ],
      "name": "getApproved",
      "outputs": [
        {
          "internalType": "address",
          "name": "",
          "type": "address"
        }
      ],
      "stateMutability": "view",
      "type": "function"
    },
    {
      "inputs": [
        {
          "internalType": "address",
          "name": "owner",
          "type": "address"
        },
        {
          "internalType": "address",
          "name": "operator",
          "type": "address"
        }
      ],
      "name": "isApprovedForAll",
      "outputs": [
        {
          "internalType": "bool",
          "name": "",
          "type": "bool"
        }
      ],
      "stateMutability": "view",
      "type": "function"
    },
    {
      "inputs": [],
      "name": "name",
      "outputs": [
        {
          "internalType": "string",
          "name": "",
          "type": "string"
        }
      ],
      "stateMutability": "view",
      "type": "function"
    },
    {
      "inputs": [],
      "name": "owner",
      "outputs": [
        {
          "internalType": "address",
          "name": "",
          "type": "address"
        }
      ],
      "stateMutability": "view",
      "type": "function"
    },
    {
      "inputs": [
        {
          "internalType": "uint256",
          "name": "tokenId",
          "type": "uint256"
        }
      ],
      "name": "ownerOf",
      "outputs": [
        {
          "internalType": "address",
          "name": "",
          "type": "address"
        }
      ],
      "stateMutability": "view",
      "type": "function"
    },
    {
      "inputs": [],
      "name": "renounceOwnership",
      "outputs": [],
      "stateMutability": "nonpayable",
      "type": "function"
    },
    {
      "inputs": [
        {
          "internalType": "address",
          "name": "to",
          "type": "address"
        },
        {
          "internalType": "string",
          "name": "uri",
          "type": "string"
        },
        {
          "internalType": "uint256",
          "name": "tokenId",
          "type": "uint256"
        },
        {
          "internalType": "string",
          "name": "name",
          "type": "string"
        },
        {
          "internalType": "string",
          "name": "types",
          "type": "string"
        },
        {
          "internalType": "string",
          "name": "thumbnailUri",
          "type": "string"
        }
      ],
      "name": "safeMint",
      "outputs": [],
      "stateMutability": "nonpayable",
      "type": "function"
    },
    {
      "inputs": [
        {
          "internalType": "address",
          "name": "from",
          "type": "address"
        },
        {
          "internalType": "address",
          "name": "to",
          "type": "address"
        },
        {
          "internalType": "uint256",
          "name": "tokenId",
          "type": "uint256"
        }
      ],
      "name": "safeTransferFrom",
      "outputs": [],
      "stateMutability": "nonpayable",
      "type": "function"
    },
    {
      "inputs": [
        {
          "internalType": "address",
          "name": "from",
          "type": "address"
        },
        {
          "internalType": "address",
          "name": "to",
          "type": "address"
        },
        {
          "internalType": "uint256",
          "name": "tokenId",
          "type": "uint256"
        },
        {
          "internalType": "bytes",
          "name": "data",
          "type": "bytes"
        }
      ],
      "name": "safeTransferFrom",
      "outputs": [],
      "stateMutability": "nonpayable",
      "type": "function"
    },
    {
      "inputs": [
        {
          "internalType": "address",
          "name": "operator",
          "type": "address"
        },
        {
          "internalType": "bool",
          "name": "approved",
          "type": "bool"
        }
      ],
      "name": "setApprovalForAll",
      "outputs": [],
      "stateMutability": "nonpayable",
      "type": "function"
    },
    {
      "inputs": [
        {
          "internalType": "bytes4",
          "name": "interfaceId",
          "type": "bytes4"
        }
      ],
      "name": "supportsInterface",
      "outputs": [
        {
          "internalType": "bool",
          "name": "",
          "type": "bool"
        }
      ],
      "stateMutability": "view",
      "type": "function"
    },
    {
      "inputs": [],
      "name": "symbol",
      "outputs": [
        {
          "internalType": "string",
          "name": "",
          "type": "string"
        }
      ],
      "stateMutability": "view",
      "type": "function"
    },
    {
      "inputs": [
        {
          "internalType": "uint256",
          "name": "index",
          "type": "uint256"
        }
      ],
      "name": "tokenByIndex",
      "outputs": [
        {
          "internalType": "uint256",
          "name": "",
          "type": "uint256"
        }
      ],
      "stateMutability": "view",
      "type": "function"
    },
    {
      "inputs": [
        {
          "internalType": "address",
          "name": "owner",
          "type": "address"
        },
        {
          "internalType": "uint256",
          "name": "index",
          "type": "uint256"
        }
      ],
      "name": "tokenOfOwnerByIndex",
      "outputs": [
        {
          "internalType": "uint256",
          "name": "",
          "type": "uint256"
        }
      ],
      "stateMutability": "view",
      "type": "function"
    },
    {
      "inputs": [
        {
          "internalType": "uint256",
          "name": "tokenId",
          "type": "uint256"
        }
      ],
      "name": "tokenURI",
      "outputs": [
        {
          "internalType": "string",
          "name": "",
          "type": "string"
        }
      ],
      "stateMutability": "view",
      "type": "function"
    },
    {
      "inputs": [],
      "name": "totalSupply",
      "outputs": [
        {
          "internalType": "uint256",
          "name": "",
          "type": "uint256"
        }
      ],
      "stateMutability": "view",
      "type": "function"
    },
    {
      "inputs": [
        {
          "internalType": "address",
          "name": "from",
          "type": "address"
        },
        {
          "internalType": "address",
          "name": "to",
          "type": "address"
        },
        {
          "internalType": "uint256",
          "name": "tokenId",
          "type": "uint256"
        }
      ],
      "name": "transferFrom",
      "outputs": [],
      "stateMutability": "nonpayable",
      "type": "function"
    },
    {
      "inputs": [
        {
          "internalType": "address",
          "name": "newOwner",
          "type": "address"
        }
      ],
      "name": "transferOwnership",
      "outputs": [],
      "stateMutability": "nonpayable",
      "type": "function"
    }
  ],
  "bytecode": "0x60806040523480156200001157600080fd5b506040518060400160405280600781526020017f506f6b656d6f6e000000000000000000000000000000000000000000000000008152506040518060400160405280600381526020017f504b4d000000000000000000000000000000000000000000000000000000000081525081600090816200008f919062000412565b508060019081620000a1919062000412565b505050620000c4620000b8620000ca60201b60201c565b620000d260201b60201c565b620004f9565b600033905090565b6000600b60009054906101000a900473ffffffffffffffffffffffffffffffffffffffff16905081600b60006101000a81548173ffffffffffffffffffffffffffffffffffffffff021916908373ffffffffffffffffffffffffffffffffffffffff1602179055508173ffffffffffffffffffffffffffffffffffffffff168173ffffffffffffffffffffffffffffffffffffffff167f8be0079c531659141344cd1fd0a4f28419497f9722a3daafe3b4186f6b6457e060405160405180910390a35050565b600081519050919050565b7f4e487b7100000000000000000000000000000000000000000000000000000000600052604160045260246000fd5b7f4e487b7100000000000000000000000000000000000000000000000000000000600052602260045260246000fd5b600060028204905060018216806200021a57607f821691505b60208210810362000230576200022f620001d2565b5b50919050565b60008190508160005260206000209050919050565b60006020601f8301049050919050565b600082821b905092915050565b6000600883026200029a7fffffffffffffffffffffffffffffffffffffffffffffffffffffffffffffffff826200025b565b620002a686836200025b565b95508019841693508086168417925050509392505050565b6000819050919050565b6000819050919050565b6000620002f3620002ed620002e784620002be565b620002c8565b620002be565b9050919050565b6000819050919050565b6200030f83620002d2565b620003276200031e82620002fa565b84845462000268565b825550505050565b600090565b6200033e6200032f565b6200034b81848462000304565b505050565b5b8181101562000373576200036760008262000334565b60018101905062000351565b5050565b601f821115620003c2576200038c8162000236565b62000397846200024b565b81016020851015620003a7578190505b620003bf620003b6856200024b565b83018262000350565b50505b505050565b600082821c905092915050565b6000620003e760001984600802620003c7565b1980831691505092915050565b6000620004028383620003d4565b9150826002028217905092915050565b6200041d8262000198565b67ffffffffffffffff811115620004395762000438620001a3565b5b62000445825462000201565b6200045282828562000377565b600060209050601f8311600181146200048a576000841562000475578287015190505b620004818582620003f4565b865550620004f1565b601f1984166200049a8662000236565b60005b82811015620004c4578489015182556001820191506020850194506020810190506200049d565b86831015620004e45784890151620004e0601f891682620003d4565b8355505b6001600288020188555050505b505050505050565b6136df80620005096000396000f3fe608060405234801561001057600080fd5b506004361061012c5760003560e01c80636352211e116100ad578063a22cb46511610071578063a22cb46514610343578063b88d4fde1461035f578063c87b56dd1461037b578063e985e9c5146103ab578063f2fde38b146103db5761012c565b80636352211e1461029d57806370a08231146102cd578063715018a6146102fd5780638da5cb5b1461030757806395d89b41146103255761012c565b806318160ddd116100f457806318160ddd146101e757806323b872dd146102055780632f745c591461022157806342842e0e146102515780634f6ccce71461026d5761012c565b8063014f9ab51461013157806301ffc9a71461014d57806306fdde031461017d578063081812fc1461019b578063095ea7b3146101cb575b600080fd5b61014b60048036038101906101469190612294565b6103f7565b005b610167600480360381019061016291906123e9565b610458565b6040516101749190612431565b60405180910390f35b61018561046a565b60405161019291906124cb565b60405180910390f35b6101b560048036038101906101b091906124ed565b6104fc565b6040516101c29190612529565b60405180910390f35b6101e560048036038101906101e09190612544565b610542565b005b6101ef610659565b6040516101fc9190612593565b60405180910390f35b61021f600480360381019061021a91906125ae565b610666565b005b61023b60048036038101906102369190612544565b6106c6565b6040516102489190612593565b60405180910390f35b61026b600480360381019061026691906125ae565b61076b565b005b610287600480360381019061028291906124ed565b61078b565b6040516102949190612593565b60405180910390f35b6102b760048036038101906102b291906124ed565b6107fc565b6040516102c49190612529565b60405180910390f35b6102e760048036038101906102e29190612601565b6108ad565b6040516102f49190612593565b60405180910390f35b610305610964565b005b61030f610978565b60405161031c9190612529565b60405180910390f35b61032d6109a2565b60405161033a91906124cb565b60405180910390f35b61035d6004803603810190610358919061265a565b610a34565b005b6103796004803603810190610374919061273b565b610a4a565b005b610395600480360381019061039091906124ed565b610aac565b6040516103a291906124cb565b60405180910390f35b6103c560048036038101906103c091906127be565b610abe565b6040516103d29190612431565b60405180910390f35b6103f560048036038101906103f09190612601565b610b52565b005b6103ff610bd5565b6104098685610c53565b6104138486610c71565b7f95d309877521b5d821abd56901d5b9e7d97fdd7f51d831c8c532ea5ba90de3cd8484848460405161044894939291906127fe565b60405180910390a1505050505050565b600061046382610cde565b9050919050565b60606000805461047990612887565b80601f01602080910402602001604051908101604052809291908181526020018280546104a590612887565b80156104f25780601f106104c7576101008083540402835291602001916104f2565b820191906000526020600020905b8154815290600101906020018083116104d557829003601f168201915b5050505050905090565b600061050782610d58565b6004600083815260200190815260200160002060009054906101000a900473ffffffffffffffffffffffffffffffffffffffff169050919050565b600061054d826107fc565b90508073ffffffffffffffffffffffffffffffffffffffff168373ffffffffffffffffffffffffffffffffffffffff16036105bd576040517f08c379a00000000000000000000000000000000000000000000000000000000081526004016105b49061292a565b60405180910390fd5b8073ffffffffffffffffffffffffffffffffffffffff166105dc610da3565b73ffffffffffffffffffffffffffffffffffffffff16148061060b575061060a81610605610da3565b610abe565b5b61064a576040517f08c379a0000000000000000000000000000000000000000000000000000000008152600401610641906129bc565b60405180910390fd5b6106548383610dab565b505050565b6000600880549050905090565b610677610671610da3565b82610e64565b6106b6576040517f08c379a00000000000000000000000000000000000000000000000000000000081526004016106ad90612a4e565b60405180910390fd5b6106c1838383610ef9565b505050565b60006106d1836108ad565b8210610712576040517f08c379a000000000000000000000000000000000000000000000000000000000815260040161070990612ae0565b60405180910390fd5b600660008473ffffffffffffffffffffffffffffffffffffffff1673ffffffffffffffffffffffffffffffffffffffff168152602001908152602001600020600083815260200190815260200160002054905092915050565b61078683838360405180602001604052806000815250610a4a565b505050565b6000610795610659565b82106107d6576040517f08c379a00000000000000000000000000000000000000000000000000000000081526004016107cd90612b72565b60405180910390fd5b600882815481106107ea576107e9612b92565b5b90600052602060002001549050919050565b6000806002600084815260200190815260200160002060009054906101000a900473ffffffffffffffffffffffffffffffffffffffff169050600073ffffffffffffffffffffffffffffffffffffffff168173ffffffffffffffffffffffffffffffffffffffff16036108a4576040517f08c379a000000000000000000000000000000000000000000000000000000000815260040161089b90612c0d565b60405180910390fd5b80915050919050565b60008073ffffffffffffffffffffffffffffffffffffffff168273ffffffffffffffffffffffffffffffffffffffff160361091d576040517f08c379a000000000000000000000000000000000000000000000000000000000815260040161091490612c9f565b60405180910390fd5b600360008373ffffffffffffffffffffffffffffffffffffffff1673ffffffffffffffffffffffffffffffffffffffff168152602001908152602001600020549050919050565b61096c610bd5565b610976600061115f565b565b6000600b60009054906101000a900473ffffffffffffffffffffffffffffffffffffffff16905090565b6060600180546109b190612887565b80601f01602080910402602001604051908101604052809291908181526020018280546109dd90612887565b8015610a2a5780601f106109ff57610100808354040283529160200191610a2a565b820191906000526020600020905b815481529060010190602001808311610a0d57829003601f168201915b5050505050905090565b610a46610a3f610da3565b8383611225565b5050565b610a5b610a55610da3565b83610e64565b610a9a576040517f08c379a0000000000000000000000000000000000000000000000000000000008152600401610a9190612a4e565b60405180910390fd5b610aa684848484611391565b50505050565b6060610ab7826113ed565b9050919050565b6000600560008473ffffffffffffffffffffffffffffffffffffffff1673ffffffffffffffffffffffffffffffffffffffff16815260200190815260200160002060008373ffffffffffffffffffffffffffffffffffffffff1673ffffffffffffffffffffffffffffffffffffffff16815260200190815260200160002060009054906101000a900460ff16905092915050565b610b5a610bd5565b600073ffffffffffffffffffffffffffffffffffffffff168173ffffffffffffffffffffffffffffffffffffffff1603610bc9576040517f08c379a0000000000000000000000000000000000000000000000000000000008152600401610bc090612d31565b60405180910390fd5b610bd28161115f565b50565b610bdd610da3565b73ffffffffffffffffffffffffffffffffffffffff16610bfb610978565b73ffffffffffffffffffffffffffffffffffffffff1614610c51576040517f08c379a0000000000000000000000000000000000000000000000000000000008152600401610c4890612d9d565b60405180910390fd5b565b610c6d8282604051806020016040528060008152506114ff565b5050565b610c7a8261155a565b610cb9576040517f08c379a0000000000000000000000000000000000000000000000000000000008152600401610cb090612e2f565b60405180910390fd5b80600a60008481526020019081526020016000209081610cd99190612ffb565b505050565b60007f780e9d63000000000000000000000000000000000000000000000000000000007bffffffffffffffffffffffffffffffffffffffffffffffffffffffff1916827bffffffffffffffffffffffffffffffffffffffffffffffffffffffff19161480610d515750610d50826115c6565b5b9050919050565b610d618161155a565b610da0576040517f08c379a0000000000000000000000000000000000000000000000000000000008152600401610d9790612c0d565b60405180910390fd5b50565b600033905090565b816004600083815260200190815260200160002060006101000a81548173ffffffffffffffffffffffffffffffffffffffff021916908373ffffffffffffffffffffffffffffffffffffffff160217905550808273ffffffffffffffffffffffffffffffffffffffff16610e1e836107fc565b73ffffffffffffffffffffffffffffffffffffffff167f8c5be1e5ebec7d5bd14f71427d1e84f3dd0314c0f7b2291e5b200ac8c7c3b92560405160405180910390a45050565b600080610e70836107fc565b90508073ffffffffffffffffffffffffffffffffffffffff168473ffffffffffffffffffffffffffffffffffffffff161480610eb25750610eb18185610abe565b5b80610ef057508373ffffffffffffffffffffffffffffffffffffffff16610ed8846104fc565b73ffffffffffffffffffffffffffffffffffffffff16145b91505092915050565b8273ffffffffffffffffffffffffffffffffffffffff16610f19826107fc565b73ffffffffffffffffffffffffffffffffffffffff1614610f6f576040517f08c379a0000000000000000000000000000000000000000000000000000000008152600401610f669061313f565b60405180910390fd5b600073ffffffffffffffffffffffffffffffffffffffff168273ffffffffffffffffffffffffffffffffffffffff1603610fde576040517f08c379a0000000000000000000000000000000000000000000000000000000008152600401610fd5906131d1565b60405180910390fd5b610fe98383836116a8565b610ff4600082610dab565b6001600360008573ffffffffffffffffffffffffffffffffffffffff1673ffffffffffffffffffffffffffffffffffffffff16815260200190815260200160002060008282546110449190613220565b925050819055506001600360008473ffffffffffffffffffffffffffffffffffffffff1673ffffffffffffffffffffffffffffffffffffffff168152602001908152602001600020600082825461109b9190613254565b92505081905550816002600083815260200190815260200160002060006101000a81548173ffffffffffffffffffffffffffffffffffffffff021916908373ffffffffffffffffffffffffffffffffffffffff160217905550808273ffffffffffffffffffffffffffffffffffffffff168473ffffffffffffffffffffffffffffffffffffffff167fddf252ad1be2c89b69c2b068fc378daa952ba7f163c4a11628f55a4df523b3ef60405160405180910390a461115a8383836116b8565b505050565b6000600b60009054906101000a900473ffffffffffffffffffffffffffffffffffffffff16905081600b60006101000a81548173ffffffffffffffffffffffffffffffffffffffff021916908373ffffffffffffffffffffffffffffffffffffffff1602179055508173ffffffffffffffffffffffffffffffffffffffff168173ffffffffffffffffffffffffffffffffffffffff167f8be0079c531659141344cd1fd0a4f28419497f9722a3daafe3b4186f6b6457e060405160405180910390a35050565b8173ffffffffffffffffffffffffffffffffffffffff168373ffffffffffffffffffffffffffffffffffffffff1603611293576040517f08c379a000000000000000000000000000000000000000000000000000000000815260040161128a906132d4565b60405180910390fd5b80600560008573ffffffffffffffffffffffffffffffffffffffff1673ffffffffffffffffffffffffffffffffffffffff16815260200190815260200160002060008473ffffffffffffffffffffffffffffffffffffffff1673ffffffffffffffffffffffffffffffffffffffff16815260200190815260200160002060006101000a81548160ff0219169083151502179055508173ffffffffffffffffffffffffffffffffffffffff168373ffffffffffffffffffffffffffffffffffffffff167f17307eab39ab6107e8899845ad3d59bd9653f200f220920489ca2b5937696c31836040516113849190612431565b60405180910390a3505050565b61139c848484610ef9565b6113a8848484846116bd565b6113e7576040517f08c379a00000000000000000000000000000000000000000000000000000000081526004016113de90613366565b60405180910390fd5b50505050565b60606113f882610d58565b6000600a6000848152602001908152602001600020805461141890612887565b80601f016020809104026020016040519081016040528092919081815260200182805461144490612887565b80156114915780601f1061146657610100808354040283529160200191611491565b820191906000526020600020905b81548152906001019060200180831161147457829003601f168201915b5050505050905060006114a2611844565b905060008151036114b75781925050506114fa565b6000825111156114ec5780826040516020016114d49291906133c2565b604051602081830303815290604052925050506114fa565b6114f58461185b565b925050505b919050565b61150983836118c3565b61151660008484846116bd565b611555576040517f08c379a000000000000000000000000000000000000000000000000000000000815260040161154c90613366565b60405180910390fd5b505050565b60008073ffffffffffffffffffffffffffffffffffffffff166002600084815260200190815260200160002060009054906101000a900473ffffffffffffffffffffffffffffffffffffffff1673ffffffffffffffffffffffffffffffffffffffff1614159050919050565b60007f80ac58cd000000000000000000000000000000000000000000000000000000007bffffffffffffffffffffffffffffffffffffffffffffffffffffffff1916827bffffffffffffffffffffffffffffffffffffffffffffffffffffffff1916148061169157507f5b5e139f000000000000000000000000000000000000000000000000000000007bffffffffffffffffffffffffffffffffffffffffffffffffffffffff1916827bffffffffffffffffffffffffffffffffffffffffffffffffffffffff1916145b806116a157506116a082611a9c565b5b9050919050565b6116b3838383611b06565b505050565b505050565b60006116de8473ffffffffffffffffffffffffffffffffffffffff16611c18565b15611837578373ffffffffffffffffffffffffffffffffffffffff1663150b7a02611707610da3565b8786866040518563ffffffff1660e01b8152600401611729949392919061343b565b6020604051808303816000875af192505050801561176557506040513d601f19601f82011682018060405250810190611762919061349c565b60015b6117e7573d8060008114611795576040519150601f19603f3d011682016040523d82523d6000602084013e61179a565b606091505b5060008151036117df576040517f08c379a00000000000000000000000000000000000000000000000000000000081526004016117d690613366565b60405180910390fd5b805181602001fd5b63150b7a0260e01b7bffffffffffffffffffffffffffffffffffffffffffffffffffffffff1916817bffffffffffffffffffffffffffffffffffffffffffffffffffffffff19161491505061183c565b600190505b949350505050565b606060405180602001604052806000815250905090565b606061186682610d58565b6000611870611844565b9050600081511161189057604051806020016040528060008152506118bb565b8061189a84611c3b565b6040516020016118ab9291906133c2565b6040516020818303038152906040525b915050919050565b600073ffffffffffffffffffffffffffffffffffffffff168273ffffffffffffffffffffffffffffffffffffffff1603611932576040517f08c379a000000000000000000000000000000000000000000000000000000000815260040161192990613515565b60405180910390fd5b61193b8161155a565b1561197b576040517f08c379a000000000000000000000000000000000000000000000000000000000815260040161197290613581565b60405180910390fd5b611987600083836116a8565b6001600360008473ffffffffffffffffffffffffffffffffffffffff1673ffffffffffffffffffffffffffffffffffffffff16815260200190815260200160002060008282546119d79190613254565b92505081905550816002600083815260200190815260200160002060006101000a81548173ffffffffffffffffffffffffffffffffffffffff021916908373ffffffffffffffffffffffffffffffffffffffff160217905550808273ffffffffffffffffffffffffffffffffffffffff16600073ffffffffffffffffffffffffffffffffffffffff167fddf252ad1be2c89b69c2b068fc378daa952ba7f163c4a11628f55a4df523b3ef60405160405180910390a4611a98600083836116b8565b5050565b60007f01ffc9a7000000000000000000000000000000000000000000000000000000007bffffffffffffffffffffffffffffffffffffffffffffffffffffffff1916827bffffffffffffffffffffffffffffffffffffffffffffffffffffffff1916149050919050565b611b11838383611d9b565b600073ffffffffffffffffffffffffffffffffffffffff168373ffffffffffffffffffffffffffffffffffffffff1603611b5357611b4e81611da0565b611b92565b8173ffffffffffffffffffffffffffffffffffffffff168373ffffffffffffffffffffffffffffffffffffffff1614611b9157611b908382611de9565b5b5b600073ffffffffffffffffffffffffffffffffffffffff168273ffffffffffffffffffffffffffffffffffffffff1603611bd457611bcf81611f56565b611c13565b8273ffffffffffffffffffffffffffffffffffffffff168273ffffffffffffffffffffffffffffffffffffffff1614611c1257611c118282612027565b5b5b505050565b6000808273ffffffffffffffffffffffffffffffffffffffff163b119050919050565b606060008203611c82576040518060400160405280600181526020017f30000000000000000000000000000000000000000000000000000000000000008152509050611d96565b600082905060005b60008214611cb4578080611c9d906135a1565b915050600a82611cad9190613618565b9150611c8a565b60008167ffffffffffffffff811115611cd057611ccf612133565b5b6040519080825280601f01601f191660200182016040528015611d025781602001600182028036833780820191505090505b5090505b60008514611d8f57600182611d1b9190613220565b9150600a85611d2a9190613649565b6030611d369190613254565b60f81b818381518110611d4c57611d4b612b92565b5b60200101907effffffffffffffffffffffffffffffffffffffffffffffffffffffffffffff1916908160001a905350600a85611d889190613618565b9450611d06565b8093505050505b919050565b505050565b6008805490506009600083815260200190815260200160002081905550600881908060018154018082558091505060019003906000526020600020016000909190919091505550565b60006001611df6846108ad565b611e009190613220565b9050600060076000848152602001908152602001600020549050818114611ee5576000600660008673ffffffffffffffffffffffffffffffffffffffff1673ffffffffffffffffffffffffffffffffffffffff168152602001908152602001600020600084815260200190815260200160002054905080600660008773ffffffffffffffffffffffffffffffffffffffff1673ffffffffffffffffffffffffffffffffffffffff168152602001908152602001600020600084815260200190815260200160002081905550816007600083815260200190815260200160002081905550505b6007600084815260200190815260200160002060009055600660008573ffffffffffffffffffffffffffffffffffffffff1673ffffffffffffffffffffffffffffffffffffffff16815260200190815260200160002060008381526020019081526020016000206000905550505050565b60006001600880549050611f6a9190613220565b9050600060096000848152602001908152602001600020549050600060088381548110611f9a57611f99612b92565b5b906000526020600020015490508060088381548110611fbc57611fbb612b92565b5b90600052602060002001819055508160096000838152602001908152602001600020819055506009600085815260200190815260200160002060009055600880548061200b5761200a61367a565b5b6001900381819060005260206000200160009055905550505050565b6000612032836108ad565b905081600660008573ffffffffffffffffffffffffffffffffffffffff1673ffffffffffffffffffffffffffffffffffffffff168152602001908152602001600020600083815260200190815260200160002081905550806007600084815260200190815260200160002081905550505050565b6000604051905090565b600080fd5b600080fd5b600073ffffffffffffffffffffffffffffffffffffffff82169050919050565b60006120e5826120ba565b9050919050565b6120f5816120da565b811461210057600080fd5b50565b600081359050612112816120ec565b92915050565b600080fd5b600080fd5b6000601f19601f8301169050919050565b7f4e487b7100000000000000000000000000000000000000000000000000000000600052604160045260246000fd5b61216b82612122565b810181811067ffffffffffffffff8211171561218a57612189612133565b5b80604052505050565b600061219d6120a6565b90506121a98282612162565b919050565b600067ffffffffffffffff8211156121c9576121c8612133565b5b6121d282612122565b9050602081019050919050565b82818337600083830152505050565b60006122016121fc846121ae565b612193565b90508281526020810184848401111561221d5761221c61211d565b5b6122288482856121df565b509392505050565b600082601f83011261224557612244612118565b5b81356122558482602086016121ee565b91505092915050565b6000819050919050565b6122718161225e565b811461227c57600080fd5b50565b60008135905061228e81612268565b92915050565b60008060008060008060c087890312156122b1576122b06120b0565b5b60006122bf89828a01612103565b965050602087013567ffffffffffffffff8111156122e0576122df6120b5565b5b6122ec89828a01612230565b95505060406122fd89828a0161227f565b945050606087013567ffffffffffffffff81111561231e5761231d6120b5565b5b61232a89828a01612230565b935050608087013567ffffffffffffffff81111561234b5761234a6120b5565b5b61235789828a01612230565b92505060a087013567ffffffffffffffff811115612378576123776120b5565b5b61238489828a01612230565b9150509295509295509295565b60007fffffffff0000000000000000000000000000000000000000000000000000000082169050919050565b6123c681612391565b81146123d157600080fd5b50565b6000813590506123e3816123bd565b92915050565b6000602082840312156123ff576123fe6120b0565b5b600061240d848285016123d4565b91505092915050565b60008115159050919050565b61242b81612416565b82525050565b60006020820190506124466000830184612422565b92915050565b600081519050919050565b600082825260208201905092915050565b60005b8381101561248657808201518184015260208101905061246b565b60008484015250505050565b600061249d8261244c565b6124a78185612457565b93506124b7818560208601612468565b6124c081612122565b840191505092915050565b600060208201905081810360008301526124e58184612492565b905092915050565b600060208284031215612503576125026120b0565b5b60006125118482850161227f565b91505092915050565b612523816120da565b82525050565b600060208201905061253e600083018461251a565b92915050565b6000806040838503121561255b5761255a6120b0565b5b600061256985828601612103565b925050602061257a8582860161227f565b9150509250929050565b61258d8161225e565b82525050565b60006020820190506125a86000830184612584565b92915050565b6000806000606084860312156125c7576125c66120b0565b5b60006125d586828701612103565b93505060206125e686828701612103565b92505060406125f78682870161227f565b9150509250925092565b600060208284031215612617576126166120b0565b5b600061262584828501612103565b91505092915050565b61263781612416565b811461264257600080fd5b50565b6000813590506126548161262e565b92915050565b60008060408385031215612671576126706120b0565b5b600061267f85828601612103565b925050602061269085828601612645565b9150509250929050565b600067ffffffffffffffff8211156126b5576126b4612133565b5b6126be82612122565b9050602081019050919050565b60006126de6126d98461269a565b612193565b9050828152602081018484840111156126fa576126f961211d565b5b6127058482856121df565b509392505050565b600082601f83011261272257612721612118565b5b81356127328482602086016126cb565b91505092915050565b60008060008060808587031215612755576127546120b0565b5b600061276387828801612103565b945050602061277487828801612103565b93505060406127858782880161227f565b925050606085013567ffffffffffffffff8111156127a6576127a56120b5565b5b6127b28782880161270d565b91505092959194509250565b600080604083850312156127d5576127d46120b0565b5b60006127e385828601612103565b92505060206127f485828601612103565b9150509250929050565b60006080820190506128136000830187612584565b81810360208301526128258186612492565b905081810360408301526128398185612492565b9050818103606083015261284d8184612492565b905095945050505050565b7f4e487b7100000000000000000000000000000000000000000000000000000000600052602260045260246000fd5b6000600282049050600182168061289f57607f821691505b6020821081036128b2576128b1612858565b5b50919050565b7f4552433732313a20617070726f76616c20746f2063757272656e74206f776e6560008201527f7200000000000000000000000000000000000000000000000000000000000000602082015250565b6000612914602183612457565b915061291f826128b8565b604082019050919050565b6000602082019050818103600083015261294381612907565b9050919050565b7f4552433732313a20617070726f76652063616c6c6572206973206e6f7420746f60008201527f6b656e206f776e6572206e6f7220617070726f76656420666f7220616c6c0000602082015250565b60006129a6603e83612457565b91506129b18261294a565b604082019050919050565b600060208201905081810360008301526129d581612999565b9050919050565b7f4552433732313a2063616c6c6572206973206e6f7420746f6b656e206f776e6560008201527f72206e6f7220617070726f766564000000000000000000000000000000000000602082015250565b6000612a38602e83612457565b9150612a43826129dc565b604082019050919050565b60006020820190508181036000830152612a6781612a2b565b9050919050565b7f455243373231456e756d657261626c653a206f776e657220696e646578206f7560008201527f74206f6620626f756e6473000000000000000000000000000000000000000000602082015250565b6000612aca602b83612457565b9150612ad582612a6e565b604082019050919050565b60006020820190508181036000830152612af981612abd565b9050919050565b7f455243373231456e756d657261626c653a20676c6f62616c20696e646578206f60008201527f7574206f6620626f756e64730000000000000000000000000000000000000000602082015250565b6000612b5c602c83612457565b9150612b6782612b00565b604082019050919050565b60006020820190508181036000830152612b8b81612b4f565b9050919050565b7f4e487b7100000000000000000000000000000000000000000000000000000000600052603260045260246000fd5b7f4552433732313a20696e76616c696420746f6b656e2049440000000000000000600082015250565b6000612bf7601883612457565b9150612c0282612bc1565b602082019050919050565b60006020820190508181036000830152612c2681612bea565b9050919050565b7f4552433732313a2061646472657373207a65726f206973206e6f74206120766160008201527f6c6964206f776e65720000000000000000000000000000000000000000000000602082015250565b6000612c89602983612457565b9150612c9482612c2d565b604082019050919050565b60006020820190508181036000830152612cb881612c7c565b9050919050565b7f4f776e61626c653a206e6577206f776e657220697320746865207a65726f206160008201527f6464726573730000000000000000000000000000000000000000000000000000602082015250565b6000612d1b602683612457565b9150612d2682612cbf565b604082019050919050565b60006020820190508181036000830152612d4a81612d0e565b9050919050565b7f4f776e61626c653a2063616c6c6572206973206e6f7420746865206f776e6572600082015250565b6000612d87602083612457565b9150612d9282612d51565b602082019050919050565b60006020820190508181036000830152612db681612d7a565b9050919050565b7f45524337323155524953746f726167653a2055524920736574206f66206e6f6e60008201527f6578697374656e7420746f6b656e000000000000000000000000000000000000602082015250565b6000612e19602e83612457565b9150612e2482612dbd565b604082019050919050565b60006020820190508181036000830152612e4881612e0c565b9050919050565b60008190508160005260206000209050919050565b60006020601f8301049050919050565b600082821b905092915050565b600060088302612eb17fffffffffffffffffffffffffffffffffffffffffffffffffffffffffffffffff82612e74565b612ebb8683612e74565b95508019841693508086168417925050509392505050565b6000819050919050565b6000612ef8612ef3612eee8461225e565b612ed3565b61225e565b9050919050565b6000819050919050565b612f1283612edd565b612f26612f1e82612eff565b848454612e81565b825550505050565b600090565b612f3b612f2e565b612f46818484612f09565b505050565b5b81811015612f6a57612f5f600082612f33565b600181019050612f4c565b5050565b601f821115612faf57612f8081612e4f565b612f8984612e64565b81016020851015612f98578190505b612fac612fa485612e64565b830182612f4b565b50505b505050565b600082821c905092915050565b6000612fd260001984600802612fb4565b1980831691505092915050565b6000612feb8383612fc1565b9150826002028217905092915050565b6130048261244c565b67ffffffffffffffff81111561301d5761301c612133565b5b6130278254612887565b613032828285612f6e565b600060209050601f8311600181146130655760008415613053578287015190505b61305d8582612fdf565b8655506130c5565b601f19841661307386612e4f565b60005b8281101561309b57848901518255600182019150602085019450602081019050613076565b868310156130b857848901516130b4601f891682612fc1565b8355505b6001600288020188555050505b505050505050565b7f4552433732313a207472616e736665722066726f6d20696e636f72726563742060008201527f6f776e6572000000000000000000000000000000000000000000000000000000602082015250565b6000613129602583612457565b9150613134826130cd565b604082019050919050565b600060208201905081810360008301526131588161311c565b9050919050565b7f4552433732313a207472616e7366657220746f20746865207a65726f2061646460008201527f7265737300000000000000000000000000000000000000000000000000000000602082015250565b60006131bb602483612457565b91506131c68261315f565b604082019050919050565b600060208201905081810360008301526131ea816131ae565b9050919050565b7f4e487b7100000000000000000000000000000000000000000000000000000000600052601160045260246000fd5b600061322b8261225e565b91506132368361225e565b925082820390508181111561324e5761324d6131f1565b5b92915050565b600061325f8261225e565b915061326a8361225e565b9250828201905080821115613282576132816131f1565b5b92915050565b7f4552433732313a20617070726f766520746f2063616c6c657200000000000000600082015250565b60006132be601983612457565b91506132c982613288565b602082019050919050565b600060208201905081810360008301526132ed816132b1565b9050919050565b7f4552433732313a207472616e7366657220746f206e6f6e20455243373231526560008201527f63656976657220696d706c656d656e7465720000000000000000000000000000602082015250565b6000613350603283612457565b915061335b826132f4565b604082019050919050565b6000602082019050818103600083015261337f81613343565b9050919050565b600081905092915050565b600061339c8261244c565b6133a68185613386565b93506133b6818560208601612468565b80840191505092915050565b60006133ce8285613391565b91506133da8284613391565b91508190509392505050565b600081519050919050565b600082825260208201905092915050565b600061340d826133e6565b61341781856133f1565b9350613427818560208601612468565b61343081612122565b840191505092915050565b6000608082019050613450600083018761251a565b61345d602083018661251a565b61346a6040830185612584565b818103606083015261347c8184613402565b905095945050505050565b600081519050613496816123bd565b92915050565b6000602082840312156134b2576134b16120b0565b5b60006134c084828501613487565b91505092915050565b7f4552433732313a206d696e7420746f20746865207a65726f2061646472657373600082015250565b60006134ff602083612457565b915061350a826134c9565b602082019050919050565b6000602082019050818103600083015261352e816134f2565b9050919050565b7f4552433732313a20746f6b656e20616c7265616479206d696e74656400000000600082015250565b600061356b601c83612457565b915061357682613535565b602082019050919050565b6000602082019050818103600083015261359a8161355e565b9050919050565b60006135ac8261225e565b91507fffffffffffffffffffffffffffffffffffffffffffffffffffffffffffffffff82036135de576135dd6131f1565b5b600182019050919050565b7f4e487b7100000000000000000000000000000000000000000000000000000000600052601260045260246000fd5b60006136238261225e565b915061362e8361225e565b92508261363e5761363d6135e9565b5b828204905092915050565b60006136548261225e565b915061365f8361225e565b92508261366f5761366e6135e9565b5b828206905092915050565b7f4e487b7100000000000000000000000000000000000000000000000000000000600052603160045260246000fdfea26469706673582212201dc555d869d815ac4d207a05a2e88770d29f641607cdf68a6b475edabf23470164736f6c63430008110033",
  "linkReferences": {},
  "deployedLinkReferences": {}
}