{
  "_format": "hh-sol-artifact-1",
  "contractName": "Pokemon",
  "sourceName": "contracts/Pokemon.sol",
  "abi": [
    {
      "inputs": [],
      "stateMutability": "nonpayable",
      "type": "constructor"
    },
    {
      "anonymous": false,
      "inputs": [
        {
          "indexed": true,
          "internalType": "address",
          "name": "owner",
          "type": "address"
        },
        {
          "indexed": true,
          "internalType": "address",
          "name": "approved",
          "type": "address"
        },
        {
          "indexed": true,
          "internalType": "uint256",
          "name": "tokenId",
          "type": "uint256"
        }
      ],
      "name": "Approval",
      "type": "event"
    },
    {
      "anonymous": false,
      "inputs": [
        {
          "indexed": true,
          "internalType": "address",
          "name": "owner",
          "type": "address"
        },
        {
          "indexed": true,
          "internalType": "address",
          "name": "operator",
          "type": "address"
        },
        {
          "indexed": false,
          "internalType": "bool",
          "name": "approved",
          "type": "bool"
        }
      ],
      "name": "ApprovalForAll",
      "type": "event"
    },
    {
      "anonymous": false,
      "inputs": [
        {
          "indexed": false,
          "internalType": "uint256",
          "name": "tokenId",
          "type": "uint256"
        },
        {
          "indexed": false,
          "internalType": "string",
          "name": "name",
          "type": "string"
        },
        {
          "indexed": false,
          "internalType": "string",
          "name": "types",
          "type": "string"
        },
        {
          "indexed": false,
          "internalType": "string",
          "name": "thumbnailUri",
          "type": "string"
        }
      ],
      "name": "Minted",
      "type": "event"
    },
    {
      "anonymous": false,
      "inputs": [
        {
          "indexed": true,
          "internalType": "address",
          "name": "previousOwner",
          "type": "address"
        },
        {
          "indexed": true,
          "internalType": "address",
          "name": "newOwner",
          "type": "address"
        }
      ],
      "name": "OwnershipTransferred",
      "type": "event"
    },
    {
      "anonymous": false,
      "inputs": [
        {
          "indexed": true,
          "internalType": "address",
          "name": "from",
          "type": "address"
        },
        {
          "indexed": true,
          "internalType": "address",
          "name": "to",
          "type": "address"
        },
        {
          "indexed": true,
          "internalType": "uint256",
          "name": "tokenId",
          "type": "uint256"
        }
      ],
      "name": "Transfer",
      "type": "event"
    },
    {
      "inputs": [
        {
          "internalType": "address",
          "name": "to",
          "type": "address"
        },
        {
          "internalType": "uint256",
          "name": "tokenId",
          "type": "uint256"
        }
      ],
      "name": "approve",
      "outputs": [],
      "stateMutability": "nonpayable",
      "type": "function"
    },
    {
      "inputs": [
        {
          "internalType": "address",
          "name": "owner",
          "type": "address"
        }
      ],
      "name": "balanceOf",
      "outputs": [
        {
          "internalType": "uint256",
          "name": "",
          "type": "uint256"
        }
      ],
      "stateMutability": "view",
      "type": "function"
    },
    {
      "inputs": [
        {
          "internalType": "uint256",
          "name": "tokenId",
          "type": "uint256"
        }
      ],
      "name": "getApproved",
      "outputs": [
        {
          "internalType": "address",
          "name": "",
          "type": "address"
        }
      ],
      "stateMutability": "view",
      "type": "function"
    },
    {
      "inputs": [
        {
          "internalType": "address",
          "name": "owner",
          "type": "address"
        },
        {
          "internalType": "address",
          "name": "operator",
          "type": "address"
        }
      ],
      "name": "isApprovedForAll",
      "outputs": [
        {
          "internalType": "bool",
          "name": "",
          "type": "bool"
        }
      ],
      "stateMutability": "view",
      "type": "function"
    },
    {
      "inputs": [],
      "name": "name",
      "outputs": [
        {
          "internalType": "string",
          "name": "",
          "type": "string"
        }
      ],
      "stateMutability": "view",
      "type": "function"
    },
    {
      "inputs": [],
      "name": "owner",
      "outputs": [
        {
          "internalType": "address",
          "name": "",
          "type": "address"
        }
      ],
      "stateMutability": "view",
      "type": "function"
    },
    {
      "inputs": [
        {
          "internalType": "uint256",
          "name": "tokenId",
          "type": "uint256"
        }
      ],
      "name": "ownerOf",
      "outputs": [
        {
          "internalType": "address",
          "name": "",
          "type": "address"
        }
      ],
      "stateMutability": "view",
      "type": "function"
    },
    {
      "inputs": [],
      "name": "renounceOwnership",
      "outputs": [],
      "stateMutability": "nonpayable",
      "type": "function"
    },
    {
      "inputs": [
        {
          "internalType": "address",
          "name": "to",
          "type": "address"
        },
        {
          "internalType": "string",
          "name": "uri",
          "type": "string"
        },
        {
          "internalType": "uint256",
          "name": "tokenId",
          "type": "uint256"
        },
        {
          "internalType": "string",
          "name": "name",
          "type": "string"
        },
        {
          "internalType": "string",
          "name": "types",
          "type": "string"
        },
        {
          "internalType": "string",
          "name": "thumbnailUri",
          "type": "string"
        }
      ],
      "name": "safeMint",
      "outputs": [],
      "stateMutability": "nonpayable",
      "type": "function"
    },
    {
      "inputs": [
        {
          "internalType": "address",
          "name": "from",
          "type": "address"
        },
        {
          "internalType": "address",
          "name": "to",
          "type": "address"
        },
        {
          "internalType": "uint256",
          "name": "tokenId",
          "type": "uint256"
        }
      ],
      "name": "safeTransferFrom",
      "outputs": [],
      "stateMutability": "nonpayable",
      "type": "function"
    },
    {
      "inputs": [
        {
          "internalType": "address",
          "name": "from",
          "type": "address"
        },
        {
          "internalType": "address",
          "name": "to",
          "type": "address"
        },
        {
          "internalType": "uint256",
          "name": "tokenId",
          "type": "uint256"
        },
        {
          "internalType": "bytes",
          "name": "data",
          "type": "bytes"
        }
      ],
      "name": "safeTransferFrom",
      "outputs": [],
      "stateMutability": "nonpayable",
      "type": "function"
    },
    {
      "inputs": [
        {
          "internalType": "address",
          "name": "operator",
          "type": "address"
        },
        {
          "internalType": "bool",
          "name": "approved",
          "type": "bool"
        }
      ],
      "name": "setApprovalForAll",
      "outputs": [],
      "stateMutability": "nonpayable",
      "type": "function"
    },
    {
      "inputs": [
        {
          "internalType": "bytes4",
          "name": "interfaceId",
          "type": "bytes4"
        }
      ],
      "name": "supportsInterface",
      "outputs": [
        {
          "internalType": "bool",
          "name": "",
          "type": "bool"
        }
      ],
      "stateMutability": "view",
      "type": "function"
    },
    {
      "inputs": [],
      "name": "symbol",
      "outputs": [
        {
          "internalType": "string",
          "name": "",
          "type": "string"
        }
      ],
      "stateMutability": "view",
      "type": "function"
    },
    {
      "inputs": [
        {
          "internalType": "uint256",
          "name": "tokenId",
          "type": "uint256"
        }
      ],
      "name": "tokenURI",
      "outputs": [
        {
          "internalType": "string",
          "name": "",
          "type": "string"
        }
      ],
      "stateMutability": "view",
      "type": "function"
    },
    {
      "inputs": [
        {
          "internalType": "address",
          "name": "from",
          "type": "address"
        },
        {
          "internalType": "address",
          "name": "to",
          "type": "address"
        },
        {
          "internalType": "uint256",
          "name": "tokenId",
          "type": "uint256"
        }
      ],
      "name": "transferFrom",
      "outputs": [],
      "stateMutability": "nonpayable",
      "type": "function"
    },
    {
      "inputs": [
        {
          "internalType": "address",
          "name": "newOwner",
          "type": "address"
        }
      ],
      "name": "transferOwnership",
      "outputs": [],
      "stateMutability": "nonpayable",
      "type": "function"
    }
  ],
  "bytecode": "0x60806040523480156200001157600080fd5b506040518060400160405280600781526020017f506f6b656d6f6e000000000000000000000000000000000000000000000000008152506040518060400160405280600381526020017f504b4d000000000000000000000000000000000000000000000000000000000081525081600090816200008f919062000412565b508060019081620000a1919062000412565b505050620000c4620000b8620000ca60201b60201c565b620000d260201b60201c565b620004f9565b600033905090565b6000600760009054906101000a900473ffffffffffffffffffffffffffffffffffffffff16905081600760006101000a81548173ffffffffffffffffffffffffffffffffffffffff021916908373ffffffffffffffffffffffffffffffffffffffff1602179055508173ffffffffffffffffffffffffffffffffffffffff168173ffffffffffffffffffffffffffffffffffffffff167f8be0079c531659141344cd1fd0a4f28419497f9722a3daafe3b4186f6b6457e060405160405180910390a35050565b600081519050919050565b7f4e487b7100000000000000000000000000000000000000000000000000000000600052604160045260246000fd5b7f4e487b7100000000000000000000000000000000000000000000000000000000600052602260045260246000fd5b600060028204905060018216806200021a57607f821691505b60208210810362000230576200022f620001d2565b5b50919050565b60008190508160005260206000209050919050565b60006020601f8301049050919050565b600082821b905092915050565b6000600883026200029a7fffffffffffffffffffffffffffffffffffffffffffffffffffffffffffffffff826200025b565b620002a686836200025b565b95508019841693508086168417925050509392505050565b6000819050919050565b6000819050919050565b6000620002f3620002ed620002e784620002be565b620002c8565b620002be565b9050919050565b6000819050919050565b6200030f83620002d2565b620003276200031e82620002fa565b84845462000268565b825550505050565b600090565b6200033e6200032f565b6200034b81848462000304565b505050565b5b8181101562000373576200036760008262000334565b60018101905062000351565b5050565b601f821115620003c2576200038c8162000236565b62000397846200024b565b81016020851015620003a7578190505b620003bf620003b6856200024b565b83018262000350565b50505b505050565b600082821c905092915050565b6000620003e760001984600802620003c7565b1980831691505092915050565b6000620004028383620003d4565b9150826002028217905092915050565b6200041d8262000198565b67ffffffffffffffff811115620004395762000438620001a3565b5b62000445825462000201565b6200045282828562000377565b600060209050601f8311600181146200048a576000841562000475578287015190505b620004818582620003f4565b865550620004f1565b601f1984166200049a8662000236565b60005b82811015620004c4578489015182556001820191506020850194506020810190506200049d565b86831015620004e45784890151620004e0601f891682620003d4565b8355505b6001600288020188555050505b505050505050565b612f1680620005096000396000f3fe608060405234801561001057600080fd5b506004361061010b5760003560e01c806370a08231116100a2578063a22cb46511610071578063a22cb465146102a4578063b88d4fde146102c0578063c87b56dd146102dc578063e985e9c51461030c578063f2fde38b1461033c5761010b565b806370a082311461022e578063715018a61461025e5780638da5cb5b1461026857806395d89b41146102865761010b565b8063095ea7b3116100de578063095ea7b3146101aa57806323b872dd146101c657806342842e0e146101e25780636352211e146101fe5761010b565b8063014f9ab51461011057806301ffc9a71461012c57806306fdde031461015c578063081812fc1461017a575b600080fd5b61012a60048036038101906101259190611c1e565b610358565b005b61014660048036038101906101419190611d73565b6103b9565b6040516101539190611dbb565b60405180910390f35b61016461049b565b6040516101719190611e55565b60405180910390f35b610194600480360381019061018f9190611e77565b61052d565b6040516101a19190611eb3565b60405180910390f35b6101c460048036038101906101bf9190611ece565b610573565b005b6101e060048036038101906101db9190611f0e565b61068a565b005b6101fc60048036038101906101f79190611f0e565b6106ea565b005b61021860048036038101906102139190611e77565b61070a565b6040516102259190611eb3565b60405180910390f35b61024860048036038101906102439190611f61565b6107bb565b6040516102559190611f9d565b60405180910390f35b610266610872565b005b610270610886565b60405161027d9190611eb3565b60405180910390f35b61028e6108b0565b60405161029b9190611e55565b60405180910390f35b6102be60048036038101906102b99190611fe4565b610942565b005b6102da60048036038101906102d591906120c5565b610958565b005b6102f660048036038101906102f19190611e77565b6109ba565b6040516103039190611e55565b60405180910390f35b61032660048036038101906103219190612148565b6109cc565b6040516103339190611dbb565b60405180910390f35b61035660048036038101906103519190611f61565b610a60565b005b610360610ae3565b61036a8685610b61565b6103748486610b7f565b7f95d309877521b5d821abd56901d5b9e7d97fdd7f51d831c8c532ea5ba90de3cd848484846040516103a99493929190612188565b60405180910390a1505050505050565b60007f80ac58cd000000000000000000000000000000000000000000000000000000007bffffffffffffffffffffffffffffffffffffffffffffffffffffffff1916827bffffffffffffffffffffffffffffffffffffffffffffffffffffffff1916148061048457507f5b5e139f000000000000000000000000000000000000000000000000000000007bffffffffffffffffffffffffffffffffffffffffffffffffffffffff1916827bffffffffffffffffffffffffffffffffffffffffffffffffffffffff1916145b80610494575061049382610bec565b5b9050919050565b6060600080546104aa90612211565b80601f01602080910402602001604051908101604052809291908181526020018280546104d690612211565b80156105235780601f106104f857610100808354040283529160200191610523565b820191906000526020600020905b81548152906001019060200180831161050657829003601f168201915b5050505050905090565b600061053882610c56565b6004600083815260200190815260200160002060009054906101000a900473ffffffffffffffffffffffffffffffffffffffff169050919050565b600061057e8261070a565b90508073ffffffffffffffffffffffffffffffffffffffff168373ffffffffffffffffffffffffffffffffffffffff16036105ee576040517f08c379a00000000000000000000000000000000000000000000000000000000081526004016105e5906122b4565b60405180910390fd5b8073ffffffffffffffffffffffffffffffffffffffff1661060d610ca1565b73ffffffffffffffffffffffffffffffffffffffff16148061063c575061063b81610636610ca1565b6109cc565b5b61067b576040517f08c379a000000000000000000000000000000000000000000000000000000000815260040161067290612346565b60405180910390fd5b6106858383610ca9565b505050565b61069b610695610ca1565b82610d62565b6106da576040517f08c379a00000000000000000000000000000000000000000000000000000000081526004016106d1906123d8565b60405180910390fd5b6106e5838383610df7565b505050565b61070583838360405180602001604052806000815250610958565b505050565b6000806002600084815260200190815260200160002060009054906101000a900473ffffffffffffffffffffffffffffffffffffffff169050600073ffffffffffffffffffffffffffffffffffffffff168173ffffffffffffffffffffffffffffffffffffffff16036107b2576040517f08c379a00000000000000000000000000000000000000000000000000000000081526004016107a990612444565b60405180910390fd5b80915050919050565b60008073ffffffffffffffffffffffffffffffffffffffff168273ffffffffffffffffffffffffffffffffffffffff160361082b576040517f08c379a0000000000000000000000000000000000000000000000000000000008152600401610822906124d6565b60405180910390fd5b600360008373ffffffffffffffffffffffffffffffffffffffff1673ffffffffffffffffffffffffffffffffffffffff168152602001908152602001600020549050919050565b61087a610ae3565b610884600061105d565b565b6000600760009054906101000a900473ffffffffffffffffffffffffffffffffffffffff16905090565b6060600180546108bf90612211565b80601f01602080910402602001604051908101604052809291908181526020018280546108eb90612211565b80156109385780601f1061090d57610100808354040283529160200191610938565b820191906000526020600020905b81548152906001019060200180831161091b57829003601f168201915b5050505050905090565b61095461094d610ca1565b8383611123565b5050565b610969610963610ca1565b83610d62565b6109a8576040517f08c379a000000000000000000000000000000000000000000000000000000000815260040161099f906123d8565b60405180910390fd5b6109b48484848461128f565b50505050565b60606109c5826112eb565b9050919050565b6000600560008473ffffffffffffffffffffffffffffffffffffffff1673ffffffffffffffffffffffffffffffffffffffff16815260200190815260200160002060008373ffffffffffffffffffffffffffffffffffffffff1673ffffffffffffffffffffffffffffffffffffffff16815260200190815260200160002060009054906101000a900460ff16905092915050565b610a68610ae3565b600073ffffffffffffffffffffffffffffffffffffffff168173ffffffffffffffffffffffffffffffffffffffff1603610ad7576040517f08c379a0000000000000000000000000000000000000000000000000000000008152600401610ace90612568565b60405180910390fd5b610ae08161105d565b50565b610aeb610ca1565b73ffffffffffffffffffffffffffffffffffffffff16610b09610886565b73ffffffffffffffffffffffffffffffffffffffff1614610b5f576040517f08c379a0000000000000000000000000000000000000000000000000000000008152600401610b56906125d4565b60405180910390fd5b565b610b7b8282604051806020016040528060008152506113fd565b5050565b610b8882611458565b610bc7576040517f08c379a0000000000000000000000000000000000000000000000000000000008152600401610bbe90612666565b60405180910390fd5b80600660008481526020019081526020016000209081610be79190612832565b505050565b60007f01ffc9a7000000000000000000000000000000000000000000000000000000007bffffffffffffffffffffffffffffffffffffffffffffffffffffffff1916827bffffffffffffffffffffffffffffffffffffffffffffffffffffffff1916149050919050565b610c5f81611458565b610c9e576040517f08c379a0000000000000000000000000000000000000000000000000000000008152600401610c9590612444565b60405180910390fd5b50565b600033905090565b816004600083815260200190815260200160002060006101000a81548173ffffffffffffffffffffffffffffffffffffffff021916908373ffffffffffffffffffffffffffffffffffffffff160217905550808273ffffffffffffffffffffffffffffffffffffffff16610d1c8361070a565b73ffffffffffffffffffffffffffffffffffffffff167f8c5be1e5ebec7d5bd14f71427d1e84f3dd0314c0f7b2291e5b200ac8c7c3b92560405160405180910390a45050565b600080610d6e8361070a565b90508073ffffffffffffffffffffffffffffffffffffffff168473ffffffffffffffffffffffffffffffffffffffff161480610db05750610daf81856109cc565b5b80610dee57508373ffffffffffffffffffffffffffffffffffffffff16610dd68461052d565b73ffffffffffffffffffffffffffffffffffffffff16145b91505092915050565b8273ffffffffffffffffffffffffffffffffffffffff16610e178261070a565b73ffffffffffffffffffffffffffffffffffffffff1614610e6d576040517f08c379a0000000000000000000000000000000000000000000000000000000008152600401610e6490612976565b60405180910390fd5b600073ffffffffffffffffffffffffffffffffffffffff168273ffffffffffffffffffffffffffffffffffffffff1603610edc576040517f08c379a0000000000000000000000000000000000000000000000000000000008152600401610ed390612a08565b60405180910390fd5b610ee78383836114c4565b610ef2600082610ca9565b6001600360008573ffffffffffffffffffffffffffffffffffffffff1673ffffffffffffffffffffffffffffffffffffffff1681526020019081526020016000206000828254610f429190612a57565b925050819055506001600360008473ffffffffffffffffffffffffffffffffffffffff1673ffffffffffffffffffffffffffffffffffffffff1681526020019081526020016000206000828254610f999190612a8b565b92505081905550816002600083815260200190815260200160002060006101000a81548173ffffffffffffffffffffffffffffffffffffffff021916908373ffffffffffffffffffffffffffffffffffffffff160217905550808273ffffffffffffffffffffffffffffffffffffffff168473ffffffffffffffffffffffffffffffffffffffff167fddf252ad1be2c89b69c2b068fc378daa952ba7f163c4a11628f55a4df523b3ef60405160405180910390a46110588383836114c9565b505050565b6000600760009054906101000a900473ffffffffffffffffffffffffffffffffffffffff16905081600760006101000a81548173ffffffffffffffffffffffffffffffffffffffff021916908373ffffffffffffffffffffffffffffffffffffffff1602179055508173ffffffffffffffffffffffffffffffffffffffff168173ffffffffffffffffffffffffffffffffffffffff167f8be0079c531659141344cd1fd0a4f28419497f9722a3daafe3b4186f6b6457e060405160405180910390a35050565b8173ffffffffffffffffffffffffffffffffffffffff168373ffffffffffffffffffffffffffffffffffffffff1603611191576040517f08c379a000000000000000000000000000000000000000000000000000000000815260040161118890612b0b565b60405180910390fd5b80600560008573ffffffffffffffffffffffffffffffffffffffff1673ffffffffffffffffffffffffffffffffffffffff16815260200190815260200160002060008473ffffffffffffffffffffffffffffffffffffffff1673ffffffffffffffffffffffffffffffffffffffff16815260200190815260200160002060006101000a81548160ff0219169083151502179055508173ffffffffffffffffffffffffffffffffffffffff168373ffffffffffffffffffffffffffffffffffffffff167f17307eab39ab6107e8899845ad3d59bd9653f200f220920489ca2b5937696c31836040516112829190611dbb565b60405180910390a3505050565b61129a848484610df7565b6112a6848484846114ce565b6112e5576040517f08c379a00000000000000000000000000000000000000000000000000000000081526004016112dc90612b9d565b60405180910390fd5b50505050565b60606112f682610c56565b600060066000848152602001908152602001600020805461131690612211565b80601f016020809104026020016040519081016040528092919081815260200182805461134290612211565b801561138f5780601f106113645761010080835404028352916020019161138f565b820191906000526020600020905b81548152906001019060200180831161137257829003601f168201915b5050505050905060006113a0611655565b905060008151036113b55781925050506113f8565b6000825111156113ea5780826040516020016113d2929190612bf9565b604051602081830303815290604052925050506113f8565b6113f38461166c565b925050505b919050565b61140783836116d4565b61141460008484846114ce565b611453576040517f08c379a000000000000000000000000000000000000000000000000000000000815260040161144a90612b9d565b60405180910390fd5b505050565b60008073ffffffffffffffffffffffffffffffffffffffff166002600084815260200190815260200160002060009054906101000a900473ffffffffffffffffffffffffffffffffffffffff1673ffffffffffffffffffffffffffffffffffffffff1614159050919050565b505050565b505050565b60006114ef8473ffffffffffffffffffffffffffffffffffffffff166118ad565b15611648578373ffffffffffffffffffffffffffffffffffffffff1663150b7a02611518610ca1565b8786866040518563ffffffff1660e01b815260040161153a9493929190612c72565b6020604051808303816000875af192505050801561157657506040513d601f19601f820116820180604052508101906115739190612cd3565b60015b6115f8573d80600081146115a6576040519150601f19603f3d011682016040523d82523d6000602084013e6115ab565b606091505b5060008151036115f0576040517f08c379a00000000000000000000000000000000000000000000000000000000081526004016115e790612b9d565b60405180910390fd5b805181602001fd5b63150b7a0260e01b7bffffffffffffffffffffffffffffffffffffffffffffffffffffffff1916817bffffffffffffffffffffffffffffffffffffffffffffffffffffffff19161491505061164d565b600190505b949350505050565b606060405180602001604052806000815250905090565b606061167782610c56565b6000611681611655565b905060008151116116a157604051806020016040528060008152506116cc565b806116ab846118d0565b6040516020016116bc929190612bf9565b6040516020818303038152906040525b915050919050565b600073ffffffffffffffffffffffffffffffffffffffff168273ffffffffffffffffffffffffffffffffffffffff1603611743576040517f08c379a000000000000000000000000000000000000000000000000000000000815260040161173a90612d4c565b60405180910390fd5b61174c81611458565b1561178c576040517f08c379a000000000000000000000000000000000000000000000000000000000815260040161178390612db8565b60405180910390fd5b611798600083836114c4565b6001600360008473ffffffffffffffffffffffffffffffffffffffff1673ffffffffffffffffffffffffffffffffffffffff16815260200190815260200160002060008282546117e89190612a8b565b92505081905550816002600083815260200190815260200160002060006101000a81548173ffffffffffffffffffffffffffffffffffffffff021916908373ffffffffffffffffffffffffffffffffffffffff160217905550808273ffffffffffffffffffffffffffffffffffffffff16600073ffffffffffffffffffffffffffffffffffffffff167fddf252ad1be2c89b69c2b068fc378daa952ba7f163c4a11628f55a4df523b3ef60405160405180910390a46118a9600083836114c9565b5050565b6000808273ffffffffffffffffffffffffffffffffffffffff163b119050919050565b606060008203611917576040518060400160405280600181526020017f30000000000000000000000000000000000000000000000000000000000000008152509050611a2b565b600082905060005b6000821461194957808061193290612dd8565b915050600a826119429190612e4f565b915061191f565b60008167ffffffffffffffff81111561196557611964611abd565b5b6040519080825280601f01601f1916602001820160405280156119975781602001600182028036833780820191505090505b5090505b60008514611a24576001826119b09190612a57565b9150600a856119bf9190612e80565b60306119cb9190612a8b565b60f81b8183815181106119e1576119e0612eb1565b5b60200101907effffffffffffffffffffffffffffffffffffffffffffffffffffffffffffff1916908160001a905350600a85611a1d9190612e4f565b945061199b565b8093505050505b919050565b6000604051905090565b600080fd5b600080fd5b600073ffffffffffffffffffffffffffffffffffffffff82169050919050565b6000611a6f82611a44565b9050919050565b611a7f81611a64565b8114611a8a57600080fd5b50565b600081359050611a9c81611a76565b92915050565b600080fd5b600080fd5b6000601f19601f8301169050919050565b7f4e487b7100000000000000000000000000000000000000000000000000000000600052604160045260246000fd5b611af582611aac565b810181811067ffffffffffffffff82111715611b1457611b13611abd565b5b80604052505050565b6000611b27611a30565b9050611b338282611aec565b919050565b600067ffffffffffffffff821115611b5357611b52611abd565b5b611b5c82611aac565b9050602081019050919050565b82818337600083830152505050565b6000611b8b611b8684611b38565b611b1d565b905082815260208101848484011115611ba757611ba6611aa7565b5b611bb2848285611b69565b509392505050565b600082601f830112611bcf57611bce611aa2565b5b8135611bdf848260208601611b78565b91505092915050565b6000819050919050565b611bfb81611be8565b8114611c0657600080fd5b50565b600081359050611c1881611bf2565b92915050565b60008060008060008060c08789031215611c3b57611c3a611a3a565b5b6000611c4989828a01611a8d565b965050602087013567ffffffffffffffff811115611c6a57611c69611a3f565b5b611c7689828a01611bba565b9550506040611c8789828a01611c09565b945050606087013567ffffffffffffffff811115611ca857611ca7611a3f565b5b611cb489828a01611bba565b935050608087013567ffffffffffffffff811115611cd557611cd4611a3f565b5b611ce189828a01611bba565b92505060a087013567ffffffffffffffff811115611d0257611d01611a3f565b5b611d0e89828a01611bba565b9150509295509295509295565b60007fffffffff0000000000000000000000000000000000000000000000000000000082169050919050565b611d5081611d1b565b8114611d5b57600080fd5b50565b600081359050611d6d81611d47565b92915050565b600060208284031215611d8957611d88611a3a565b5b6000611d9784828501611d5e565b91505092915050565b60008115159050919050565b611db581611da0565b82525050565b6000602082019050611dd06000830184611dac565b92915050565b600081519050919050565b600082825260208201905092915050565b60005b83811015611e10578082015181840152602081019050611df5565b60008484015250505050565b6000611e2782611dd6565b611e318185611de1565b9350611e41818560208601611df2565b611e4a81611aac565b840191505092915050565b60006020820190508181036000830152611e6f8184611e1c565b905092915050565b600060208284031215611e8d57611e8c611a3a565b5b6000611e9b84828501611c09565b91505092915050565b611ead81611a64565b82525050565b6000602082019050611ec86000830184611ea4565b92915050565b60008060408385031215611ee557611ee4611a3a565b5b6000611ef385828601611a8d565b9250506020611f0485828601611c09565b9150509250929050565b600080600060608486031215611f2757611f26611a3a565b5b6000611f3586828701611a8d565b9350506020611f4686828701611a8d565b9250506040611f5786828701611c09565b9150509250925092565b600060208284031215611f7757611f76611a3a565b5b6000611f8584828501611a8d565b91505092915050565b611f9781611be8565b82525050565b6000602082019050611fb26000830184611f8e565b92915050565b611fc181611da0565b8114611fcc57600080fd5b50565b600081359050611fde81611fb8565b92915050565b60008060408385031215611ffb57611ffa611a3a565b5b600061200985828601611a8d565b925050602061201a85828601611fcf565b9150509250929050565b600067ffffffffffffffff82111561203f5761203e611abd565b5b61204882611aac565b9050602081019050919050565b600061206861206384612024565b611b1d565b90508281526020810184848401111561208457612083611aa7565b5b61208f848285611b69565b509392505050565b600082601f8301126120ac576120ab611aa2565b5b81356120bc848260208601612055565b91505092915050565b600080600080608085870312156120df576120de611a3a565b5b60006120ed87828801611a8d565b94505060206120fe87828801611a8d565b935050604061210f87828801611c09565b925050606085013567ffffffffffffffff8111156121305761212f611a3f565b5b61213c87828801612097565b91505092959194509250565b6000806040838503121561215f5761215e611a3a565b5b600061216d85828601611a8d565b925050602061217e85828601611a8d565b9150509250929050565b600060808201905061219d6000830187611f8e565b81810360208301526121af8186611e1c565b905081810360408301526121c38185611e1c565b905081810360608301526121d78184611e1c565b905095945050505050565b7f4e487b7100000000000000000000000000000000000000000000000000000000600052602260045260246000fd5b6000600282049050600182168061222957607f821691505b60208210810361223c5761223b6121e2565b5b50919050565b7f4552433732313a20617070726f76616c20746f2063757272656e74206f776e6560008201527f7200000000000000000000000000000000000000000000000000000000000000602082015250565b600061229e602183611de1565b91506122a982612242565b604082019050919050565b600060208201905081810360008301526122cd81612291565b9050919050565b7f4552433732313a20617070726f76652063616c6c6572206973206e6f7420746f60008201527f6b656e206f776e6572206e6f7220617070726f76656420666f7220616c6c0000602082015250565b6000612330603e83611de1565b915061233b826122d4565b604082019050919050565b6000602082019050818103600083015261235f81612323565b9050919050565b7f4552433732313a2063616c6c6572206973206e6f7420746f6b656e206f776e6560008201527f72206e6f7220617070726f766564000000000000000000000000000000000000602082015250565b60006123c2602e83611de1565b91506123cd82612366565b604082019050919050565b600060208201905081810360008301526123f1816123b5565b9050919050565b7f4552433732313a20696e76616c696420746f6b656e2049440000000000000000600082015250565b600061242e601883611de1565b9150612439826123f8565b602082019050919050565b6000602082019050818103600083015261245d81612421565b9050919050565b7f4552433732313a2061646472657373207a65726f206973206e6f74206120766160008201527f6c6964206f776e65720000000000000000000000000000000000000000000000602082015250565b60006124c0602983611de1565b91506124cb82612464565b604082019050919050565b600060208201905081810360008301526124ef816124b3565b9050919050565b7f4f776e61626c653a206e6577206f776e657220697320746865207a65726f206160008201527f6464726573730000000000000000000000000000000000000000000000000000602082015250565b6000612552602683611de1565b915061255d826124f6565b604082019050919050565b6000602082019050818103600083015261258181612545565b9050919050565b7f4f776e61626c653a2063616c6c6572206973206e6f7420746865206f776e6572600082015250565b60006125be602083611de1565b91506125c982612588565b602082019050919050565b600060208201905081810360008301526125ed816125b1565b9050919050565b7f45524337323155524953746f726167653a2055524920736574206f66206e6f6e60008201527f6578697374656e7420746f6b656e000000000000000000000000000000000000602082015250565b6000612650602e83611de1565b915061265b826125f4565b604082019050919050565b6000602082019050818103600083015261267f81612643565b9050919050565b60008190508160005260206000209050919050565b60006020601f8301049050919050565b600082821b905092915050565b6000600883026126e87fffffffffffffffffffffffffffffffffffffffffffffffffffffffffffffffff826126ab565b6126f286836126ab565b95508019841693508086168417925050509392505050565b6000819050919050565b600061272f61272a61272584611be8565b61270a565b611be8565b9050919050565b6000819050919050565b61274983612714565b61275d61275582612736565b8484546126b8565b825550505050565b600090565b612772612765565b61277d818484612740565b505050565b5b818110156127a15761279660008261276a565b600181019050612783565b5050565b601f8211156127e6576127b781612686565b6127c08461269b565b810160208510156127cf578190505b6127e36127db8561269b565b830182612782565b50505b505050565b600082821c905092915050565b6000612809600019846008026127eb565b1980831691505092915050565b600061282283836127f8565b9150826002028217905092915050565b61283b82611dd6565b67ffffffffffffffff81111561285457612853611abd565b5b61285e8254612211565b6128698282856127a5565b600060209050601f83116001811461289c576000841561288a578287015190505b6128948582612816565b8655506128fc565b601f1984166128aa86612686565b60005b828110156128d2578489015182556001820191506020850194506020810190506128ad565b868310156128ef57848901516128eb601f8916826127f8565b8355505b6001600288020188555050505b505050505050565b7f4552433732313a207472616e736665722066726f6d20696e636f72726563742060008201527f6f776e6572000000000000000000000000000000000000000000000000000000602082015250565b6000612960602583611de1565b915061296b82612904565b604082019050919050565b6000602082019050818103600083015261298f81612953565b9050919050565b7f4552433732313a207472616e7366657220746f20746865207a65726f2061646460008201527f7265737300000000000000000000000000000000000000000000000000000000602082015250565b60006129f2602483611de1565b91506129fd82612996565b604082019050919050565b60006020820190508181036000830152612a21816129e5565b9050919050565b7f4e487b7100000000000000000000000000000000000000000000000000000000600052601160045260246000fd5b6000612a6282611be8565b9150612a6d83611be8565b9250828203905081811115612a8557612a84612a28565b5b92915050565b6000612a9682611be8565b9150612aa183611be8565b9250828201905080821115612ab957612ab8612a28565b5b92915050565b7f4552433732313a20617070726f766520746f2063616c6c657200000000000000600082015250565b6000612af5601983611de1565b9150612b0082612abf565b602082019050919050565b60006020820190508181036000830152612b2481612ae8565b9050919050565b7f4552433732313a207472616e7366657220746f206e6f6e20455243373231526560008201527f63656976657220696d706c656d656e7465720000000000000000000000000000602082015250565b6000612b87603283611de1565b9150612b9282612b2b565b604082019050919050565b60006020820190508181036000830152612bb681612b7a565b9050919050565b600081905092915050565b6000612bd382611dd6565b612bdd8185612bbd565b9350612bed818560208601611df2565b80840191505092915050565b6000612c058285612bc8565b9150612c118284612bc8565b91508190509392505050565b600081519050919050565b600082825260208201905092915050565b6000612c4482612c1d565b612c4e8185612c28565b9350612c5e818560208601611df2565b612c6781611aac565b840191505092915050565b6000608082019050612c876000830187611ea4565b612c946020830186611ea4565b612ca16040830185611f8e565b8181036060830152612cb38184612c39565b905095945050505050565b600081519050612ccd81611d47565b92915050565b600060208284031215612ce957612ce8611a3a565b5b6000612cf784828501612cbe565b91505092915050565b7f4552433732313a206d696e7420746f20746865207a65726f2061646472657373600082015250565b6000612d36602083611de1565b9150612d4182612d00565b602082019050919050565b60006020820190508181036000830152612d6581612d29565b9050919050565b7f4552433732313a20746f6b656e20616c7265616479206d696e74656400000000600082015250565b6000612da2601c83611de1565b9150612dad82612d6c565b602082019050919050565b60006020820190508181036000830152612dd181612d95565b9050919050565b6000612de382611be8565b91507fffffffffffffffffffffffffffffffffffffffffffffffffffffffffffffffff8203612e1557612e14612a28565b5b600182019050919050565b7f4e487b7100000000000000000000000000000000000000000000000000000000600052601260045260246000fd5b6000612e5a82611be8565b9150612e6583611be8565b925082612e7557612e74612e20565b5b828204905092915050565b6000612e8b82611be8565b9150612e9683611be8565b925082612ea657612ea5612e20565b5b828206905092915050565b7f4e487b7100000000000000000000000000000000000000000000000000000000600052603260045260246000fdfea264697066735822122008ca3b54273354e4df306eb578307cf6fe215a2a4ec7409e37ae96e46a4b3f3a64736f6c63430008110033",
  "linkReferences": {},
  "deployedLinkReferences": {}
}